:020000040000fa
:080000000002040000000000f2
:020000040000fa
:100400006f9c22000e7f24000e0188000000000077
:100410000c000700a0bc2e00010020001100070006
:10042000000020000000e000020032000000020096
:100430000000000078c90200000000000040da005f
:100440000000fe004440a900a0b920000000e00028
:100450000300320000002000a00188004440a800f2
:100460000000060091018800800078000000eb0089
:1004700015003700e280400032a0b4009101ba00bc
:10048000e280400032a0b4009102ba00e280400055
:1004900032a0b4000002eb00472bde00f507b200eb
:1004a000602ce10004003a000059eb008301e900f0
:1004b000fdff3e00040037006128e100010032002a
:1004c0000082eb00040007001101ba000200e00006
:1004d000e8ff3a00000006003159ba008301e90044
:1004e0000c0032002159ba008301e90008003200f3
:1004f0000400e00003003a00e280400032a0b400b3
:10050000f5ff370011d9ba008301e900faff3a007c
:100510008100e800e180400032a0b4000000060045
:10052000541d040001000000d0c9040000000000b8
:100530006cb504000000000064b40400000000007a
:1005400084b40400000000007ab50400000000003c
:1005500086b50400000000009ab40400000000000a
:1005600060b504000000000020bd04000000000091
:100570007cb90400000000008cbb040000000000f7
:10058000e4b70400000000006ab6040000000000a8
:10059000c6b9040000000000a6ba04000000000074
:1005a00034b70400000000006ebc0400000000002e
:1005b000d8bd0400000000005cfc04000000000046
:1005c0000afd040000000000f2fd0400000000002d
:1005d00058fe04000000000072fe0400000000004d
:1005e0008afe0400000000004aff04000000000032
:1005f000bc29040001000000bed20400000000007d
:10060000dcd70400000000006ad4040000000000f1
:10061000fa0e040001000000bc810400000000008c
:100620003200f800023b8800910188000008bb00fe
:100630000500fc0051052000313b8800a10a200084
:10064000313b880061e7a8000000000000000000c6
:100650003200f900000006000400a100010037008c
:100660000400a0003200f80091018800110024006d
:10067000013b8800f10f20003208bb000400a700f6
:10068000b20078000198bb008301e900faff3a004c
:10069000680151000400a700680151006800500083
:1006a0001208bb00e2ff3700f30f20003200f80011
:1006b0009101880031002400013b88000208bb0042
:1006c0000388bb00daff37003200f800003b8800e7
:1006d000d7ff37001004b100030035009001b100ce
:1006e00001003c00100005000000050080007800bb
:1006f0001104b100030035009101b10001003c007c
:100700000050a000000006001004b10007003500f2
:100710009001b100040034007000b1000300350006
:100720009001b10001003c00100005000000050030
:100730006900e100040035006d00e10003003400b1
:100740000002b100010032000000050010000500a9
:10075000020ab900001bb9000200b8008100420083
:1007600081004300000006000a00fa0080017800c2
:10077000e20f500028003e00c0418100e10f500010
:1007800008003200802320000000e0000500320055
:100790000423200025232000462320008001780028
:1007a00004003700042220002522200046222000d9
:1007b00083222000144090000004e0000400350073
:1007c0008009eb00144090000074a00010429800d3
:1007d000154090000028a30003003a001540900047
:1007e0000024a000904298008001eb000700370031
:1007f000154090000008a300fdff320063c07800a0
:100800000000fb00000b78008301e800828f51009c
:10081000f7ff3a000800370030002000b0bf9f000b
:10082000c3bf9f00d1bf9f00e2bf9f006a805700f7
:1008300000c0da006fb99700020078000080fa006b
:10084000000006000a00fa00881f78008001780086
:100850000000e00029003a00c0418100e10f500093
:1008600008003200802320000000e0000500320074
:100870000423200025232000672320008001780026
:1008800004003700042220002522200067222000d7
:1008900083222000144090000004e0000400350092
:1008a0008009eb00144090000074a00010429800f2
:1008b0000002eb000c003700130a200015447800fa
:1008c0006140640002003a008301e900fbff3a0046
:1008d0000402e8009541780061c061000500320023
:1008e000170078008058780004035100820f5200ee
:1008f000f1ff3a00060051000800370020002000f8
:10090000a0bf9f00b3bf9f00c1bf9f00d2bf9f0089
:100910006c80570000c0da005fb897004f04780081
:100920000080fa00000006006022b80006022000e5
:100930000000d0008180d2000482d2008582d200e3
:100940000000a0000202520083825a00030031001e
:100950000202420083824a000000a1000603e9006f
:10096000f3ff3a0000000600889fbe008a9fbe0089
:100970008c1f7800510207005802330003866c0078
:100980006450e1002e0032006420e10033003200a8
:100990006150e1002f0032006120e100310032009f
:1009a00085855500eb07b0000900200008042000f1
:1009b000050037000804440089844c000a00310017
:1009c0000603430087834b000001530081815b00d5
:1009d000f8ff33000203be000800a0000804440032
:1009e00089844c00f6ff3900c639dd0083017300ad
:1009f00001003200130020008904d1000884d300d4
:100a00000998a300050032000800a7000300a00019
:100a10008904d1000884d3008b05e8008904d10043
:100a20000884d3000001eb000281d2003b020700e2
:100a300001f0a1000cf0a70001f0a0003002370087
:100a40006420e100320232000801be000200be0054
:100a5000f7ff37006120e1002d0232006000b8008e
:100a6000f3ff37000000200001f82700f0ff3700f7
:100a7000f4ff2f004f0237000001be00680207009c
:100a80000470a70003f0a10003f8a30013003a00cc
:100a90006509b10010003200090035006928e10045
:100aa00002003500010028000000050000004000a1
:100ab000818048008502e900fcff3a000000060042
:100ac000f88f4200050035008100d1000080d3007e
:100ad0008502e800fcff3a00000006008000eb0001
:100ae00000000500889fbe008a9fbe0001057800b7
:100af0000100e0000400350008003c000000e000b8
:100b0000200032000500370060001000e08018006f
:100b100002003b0001f02c001a0037000004be0068
:100b20006011b8006b0920000982cf000200390073
:100b30000882cf000441b000694252000e0032002a
:100b400008003b0082817100610164008904d100ca
:100b50000884d3008b05e8000442e800f9ff3a005e
:100b6000050037000804440089844c008b05e90027
:100b70000442e900fbff3a00e80107000af0a70081
:100b800001f0a0004f05be004f04be0000000600ab
:100b900003f0a200889fbe008a9fbe008c1f7800d1
:100ba000c6010700cd0133006450e1004f00320060
:100bb0006420e1005200320003826c0007003b0019
:100bc0000905d0000306d000820f54000c065d001a
:100bd0000200390002003200890178000306780023
:100be0008582550004003d000003fd008103fd00e7
:100bf0008502ea008b854200840f720002003b00f0
:100c000060001000e08018006011b8000005eb00e3
:100c10007a28e1000a00390006007800c75ddd008f
:100c2000f707b200878075002d00370082817100c0
:100c30000a017800610560008180d1000080d30046
:100c40008502e900f9ff3b00060440008784480064
:100c500002003b0060041400e0841c000988a3002b
:100c6000070032008a817100828171006101640095
:100c70008904d1000884d3008b05e80017003700f1
:100c80000978a30013003a000b00e00013003400c1
:100c90008b05e9000804440089844c000a44740070
:100ca0000978a3000d003a000b00e00007003400b3
:100cb0008b05e9000804440089844c0001003a00d7
:100cc0000b0020000978a300f7ff32000001eb00c1
:100cd00002003700828171000a0178008f0107004d
:100ce0000cf0a70001f0a000850137006420e100ae
:100cf00002003a00838f6c00850133000801be00ba
:100d00000200be007e013700889fbe008a9fbe00a1
:100d10008c1f7800690107007001330003866c00a6
:100d20006450e100240032006420e100270032001a
:100d30006150e100220032006120e1002100320018
:100d40008b854200eb07b1000134b800003ab800cf
:100d50000804420089844a00013ab8000030b80013
:100d60008880400009014a00040033000000400070
:100d700081804800020149008b05e900c909dd00b6
:100d8000830170000100320013002000c814de004f
:100d90004814dd004709de001200b200c808de007a
:100da000088470005d01070001f0a1000cf0a700ad
:100db00001f0a000520137006120e100540132002f
:100dc0000801be000200be00f7ff37006150e100dd
:100dd000fcff3a004e013700881f780000047800bd
:100de0005001be004000be00040040008580480065
:100df0000601490087814900009cbe000294be00a4
:100e00000400e1000588e1000690e1000798e10098
:100e100002003100680044001008e8004f04780028
:100e200000000600f4874700889fbe008a9fbe002e
:100e30008c9fbe008e1f78000205be000004be001d
:100e4000d4b79f00e5b79f00f6b79f0087bf9f000c
:100e50000000eb00c0b79f00b0b79f00a0b79f0095
:100e600090b79f0080b79f000d042000bfb097008f
:100e70004fb09700000140000000e0000f003d006f
:100e80004f08de0000007100c0b79f009e00070001
:100e900001003d0012002000a100070001003d00fc
:100ea00012002000a6000700b1000700b6000700ee
:100eb0000f004000c8ff0700220037004f08de0087
:100ec00000067100ccb79f008f00070001003d00b5
:100ed000120020009200070001003d0012002000d7
:100ee00097000700a20007000fb297009fb297007b
:100ef0002fb39700bfb39700a9000700000052006e
:100f000081805a0002015b0083815b0080b79f00f3
:100f100091b79f00a2b79f00b3b79f000007eb00f7
:100f20009f0007000020e10001a8e10002b0e100fd
:100f300003b8e100010031001e0020000e00560041
:100f4000c0b79f004fb297000400e00007003500d3
:100f500010002000010020006011b800080470009b
:100f6000898470000a0571008b8571008d06e90087
:100f7000beff3a000400e00003003d0082000700cd
:100f80000f00400094ff07004fa897000000e0000a
:100f900004003a000fb497009fb497002fb5970054
:100fa000bfb59700940007004f0778004f06be00ba
:100fb0004f05be004f04be004f01b1000000060007
:100fc000881f780018002000881f780095ff070010
:100fd0008f87e9004f04780000000600801feb00b7
:100fe00090ff07008f87e90000000600889fbe0081
:100ff0008a9fbe008c1f78006e00070007003d002e
:1010000073000700e00f5b00e08f5b0007003d000e
:10101000320007000006eb00040037003400070030
:1010200002003d002a0007001c002000720007009b
:10103000e3ff07000203be000002be000c00e00058
:1010400001003200220007000400be000601be00bd
:101050004f0678004f05be004f04be00000006009a
:10106000889fbe008a9fbe008c1f78005100070039
:1010700005003d0056000700e00f5b00e08f5b00bd
:1010800006003d00040037001900070003003d0082
:101090006000b8006011b80010000700560007009b
:1010a000ceff07000203be000002be000c00e000fd
:1010b00001003200060007000400be000601be0069
:1010c0004f0678004f05be004f04be00000006002a
:1010d0006000b8006011b800000037000402500042
:1010e00085825800060359008783590000000600d6
:1010f0000006eb00e00f5200e08f5a00e00f5b00ab
:10110000e08f5b00000006000180400090b79f0068
:101110000001eb008fb097000100e0000000060026
:101120000200700090b79f000180400080b79f00d0
:101130000001eb00ffa897000100e000000006009e
:101140000200700080b79f00018040006faa9700e6
:10115000cf20de0001007000f0af9f0004024200cb
:10116000250007004f18de00000272000000060094
:10117000e4af9f000804440089844c000a054d0038
:101180008b854d00000006003fb29700cfb297005c
:101190005fb39700efb3970000fe2f00000006003a
:1011a0003fb09700cfb097005fb19700efb19700c5
:1011b000000006000205be000004be00e00f500063
:1011c000e08f5800e00f5900e08f59000000060042
:1011d0006000b8006011b80008045000898458000d
:1011e0000a0559008b8559001c002000e00f5200b1
:1011f000e08f5a00000006000800be000a01be0091
:1012000000000600889fbe008a9fbe008c1f7800e9
:101210000205be000004be000006eb00e00f500017
:10122000e08f5800e00f5900e08f590007003d00a3
:101230006000b8006011b8000804500089845800ac
:101240000a0559008b8559001c002000e00f520050
:10125000e08f5a00e00f5b00e08f5b0002003d0072
:101260000f0007000c00a2000800be000a01be002b
:10127000800007000203be000002be000c00e00078
:1012800001003200060007000400be000601be0097
:101290004f0678004f05be004f04be000000060058
:1012a0006000b8006011b800040250008582580048
:1012b0000603590087835900000006000004be00a1
:1012c000570007000003be000405be000200be0078
:1012d00053000700844f7500000006000200be00a6
:1012e0006450e100050036006420e1000200360091
:1012f0000968a30001003a000800be000160a000d8
:101300004f0678004f05be004f04be0000000600e7
:10131000f0ff2f00f1ff2700f9ff370081002000c8
:10132000618055000b003d000b00200061fe2f0086
:101330000100e1001d003400828171006101640040
:101340008904d1000884d3000000e800faff3a00c5
:101350007100200061006400030070000200600062
:101360000900320061044400e0844c000988a500b3
:10137000050032008b05e8006808e10002003a0031
:101380008904d1000884d300f20f20000258e10044
:1013900005003d00c75ddd00f907b20089807500da
:1013a00008007800000006000bf827008b0078008a
:1013b00000000500889fbe008a9fbe00841f780041
:1013c000beff07004f00780011003300f0ff2f0030
:1013d000838f6c0006003b00040565000a00a7002f
:1013e0000800370009f0a6001000200008003700b0
:1013f000820f5400838f5c0003003900100020002e
:1014000001003e000000200009f0a7000000ea00f3
:101410004f05be004f04be000000e00000000600c3
:10142000c70ade00f107b200f50fb2000800320073
:10143000e1cf4200020032000170a000240005004c
:10144000810f70000100320004080500440005000f
:10145000810f700002003a00140005008502e900c7
:101460000000400081c04800fcff3b000170a0006c
:1014700024000500889fbe008a9fbe008c9fbe008e
:101480000404b8000506b8008904460060854e00d3
:101490000606b8000a054600e0854e000706b800bb
:1014a0008b054600040eb800890446000a854e00ec
:1014b000e0854d00050eb8000a0546008b854e00fc
:1014c000060eb8008b0546000416b8000a05460053
:1014d0008b854e000516b8008b054600041eb8002b
:1014e0008b0546000800be000a01be004f06be0084
:1014f0004f05be004f04be00000006008001eb0057
:1015000002003700817178008301e800828f51006a
:10151000fcff3a0000000600889fbe000004be00e9
:101520000000e00003003a00184e81000800e000cf
:10153000130032000800be00280107000004440028
:101540001804e00004003a000000eb00104e89008f
:10155000000478000a0037000800be0032010700ce
:1015600000004400104e89001004e0000200320028
:101570000058eb00010037000000eb00104e89001e
:10158000080078004f04be000000060080017800cb
:101590000001780031407800005978000004e00034
:1015a000fcff3a000300780000000600800078008d
:1015b0003004e000feff3a00010050000000e900a6
:1015c000000006008001780000017800010037006b
:1015d0000201e8001204e000fdff3a00314078000b
:1015e000005978000004e000fcff3a000300780096
:1015f000000006000001780000c2b30001003700bf
:101600000201e8009240780080cf5000fcff3200d9
:10161000e9cf5000faff3200d0c2b30080cf5000b3
:1016200003003a000201e80014c0b30005003700cf
:101630000042eb00b0c2b30080cf500001003a007e
:101640000201e8008000eb0005fd2f0004003700d8
:101650006a08b90000804100850040000201e800ee
:101660009201fb0005804100e90f5000f8ff3600b1
:101670000404e000010032008100ea00010078006b
:10168000000006000c00fa00889fbe0000047800ed
:10169000cfb09700f0ff2700d0bf9f008004eb0081
:1016a00099bf9f0088bf9f00a8bf9f00200c20000b
:1016b000b0bf9f007881570070805700ed00070091
:1016c0000fb89700094878000fb897000804500039
:1016d000080078004f04be000080fa0000000600f9
:1016e00001002000a04b8900b14b890011c0b3005c
:1016f000209722000148780000000600229722006f
:101700001204e00006003a00100020000100200052
:10171000a04b8900b14b890010c0b300004978008c
:10172000d2e62400631c2400a04b8100b14b810051
:1017300007fc07000001be00900323000100200009
:101740000200400083804800a04b8900b14b890013
:101750004088de00cf80de0000f0a100000006001f
:101760000400fa00e0bf9f00e4815700812978005f
:101770000002eb000f0037006fb897009040780030
:101780007fb89700104078000402e80080cf500036
:10179000040032008180fb000080fb0000805000cc
:1017a000070037006fb897000000e800e0bf9f0017
:1017b0009309e800820f5200efff3a000000eb00af
:1017c0000080fa000000060010417800b14151008d
:1017d00003003a000000e8000204e000faff3a00cb
:1017e0000300fb00000006008001eb000200370050
:1017f00061f079008301e800828f5100fcff3a001c
:101800000000060010417800814f510004003200b2
:101810000000e8000204e000faff3a000000eb00dc
:1018200000000600889fbe000004be000d003700c7
:10183000090078005dff0700000178000800be0085
:10184000410307000000e00002003a0008007800b1
:10185000090037009900fb000800e800e9ff0700d5
:10186000000478000800e000020032001804e000e4
:10187000efff3a000000eb004f04be00000006003e
:10188000889fbe008a9fbe008000780000c2b3001f
:10189000010037008900780081047800394478001d
:1018a000804f5400fbff3200e94f5400f9ff320033
:1018b000d0c2b300804f540004003a0019447800ad
:1018c0008184e8001ac0b300060037000045eb0031
:1018d000b0c2b300804f540002003a0019447800af
:1018e0008184e8006022b8000a003700a2002000ce
:1018f000030020000400be0095fb07000b414400dc
:101900000281fb00030020000002410081824900a7
:10191000394478000880fb000bfd2f000b004000cd
:10192000e90f5000f1ff36000a04e0000200320027
:1019300060021200e0821a000400be004f05be00e3
:101940004f04be00000006000c00fa00a0bf9f007c
:10195000c0bf9f0015ff0700b0bf9f00f0bf9f00f2
:10196000100c2000d0bf9f0074815700efb097008b
:101970006c805700310307000080fa000000060069
:101980000003780080027800020278008001eb00fa
:10199000080037000402e90063c07800805a78002c
:1019a0008301e8000004e00002003a008000eb0040
:1019b00006003700828f5100f6ff3a00fbff370028
:1019c0000040eb0080f07a008100e800848f500036
:1019d000fbff3a000600780000000600889fbe006a
:1019e0008a1f780000057800810478000004eb006d
:1019f000010037000804e80068407d000004e000b2
:101a0000050032008000fb00090078007dff070020
:101a10000000e000f7ff3a00080078004f0578006a
:101a20004f04be0000000600889fbe008a1f780099
:101a300000057800810478000004eb000100370005
:101a40000804e80068407d000004e0000500320062
:101a50008000fb00090078006aff07000000e0003a
:101a6000f7ff3200080078004f0578004f04be00f1
:101a700000000600fe874700889fbe008a9fbe00c8
:101a80008c9fbe008e1f7800f0b79f000107780082
:101a900082bf9f000000eb00a0b79f009f023700ad
:101aa0008006eb0050c2b30080cf50000900320026
:101ab0000100fb00ffb0970001040700e10f4000a8
:101ac00096023200afb097008100e800a1b79f00f6
:101ad000920237009e407800d0c2b30080cf500001
:101ae0000c00320007003c006d40500080cf5000d9
:101af0000a0032006b40400080cf50000e003a00d8
:101b00000800370000c3b30080cf50000a003a003d
:101b1000060037000d30a000050037000d00a000c2
:101b2000030037000d10a000010037000d20a000b9
:101b30000e07e800e7ff37000d18a3000100320090
:101b40000d00a1000d38a300010032000d20a100fe
:101b50000100fb0002fd2f0002004000e90f5000d1
:101b60000e003e000002eb00c4b79f008201780027
:101b7000cfb297006a28b9001e01fb0000014100a6
:101b800003014100c2b79f005e00fb00030040005c
:101b9000e90f50000b003e00f5ff37000006eb0098
:101ba000ccb79f00a0c2b30080cf500005003a0020
:101bb0000fb89700c000780080bf9f00c1b79f009a
:101bc0000e07e8000001eb00b2b79f00e0c2b300cf
:101bd0009e4f100018003a000de0a0008e00e800b3
:101be00064405000914f100002003200010778005d
:101bf0000c0037000fba9700c402780084bf9f0022
:101c0000b5b79f000e87e8000b0037003fb697007e
:101c10006a60b9000000410003004000b0b79f00b7
:101c20000e07e8001e01fb0003fd2f00030041002a
:101c3000e90f5000f5ff3600be407800e1d79f0065
:101c4000c0c6b30080cf5000220032000f003c001d
:101c50006940500080cf50007700320004003c0003
:101c60000104e000310232006b4050000f003700e9
:101c700040c6b30080cf5000930032006540400062
:101c800080cf50008b003a008f00370030c7b30080
:101c900080cf50001a00320007003c006440500022
:101ca00080cf5000110032000040e80080cf50008b
:101cb00080003a000f00370050c7b30080cf5000bb
:101cc000800032006340400080cf500079003a002d
:101cd00009003700000028000d48a30001003a0069
:101ce0000001200080867600d3ff37000d60a00041
:101cf000750037000d50a0000d70a0007200370075
:101d00008fb897004100780081bf9f0000047800e1
:101d10000000e00001003a00088622008004eb0089
:101d2000010037008104e800890078000880440041
:101d30001004e000fbff3a003fb197000200e00012
:101d400003003200890f5100010031008204780045
:101d50000002eb00e4af9f00cfb29700898f5200e2
:101d60000200360009805200e0af9f004368de00a9
:101d7000e10660001b003a000d06780009003700fc
:101d8000ffb09700000220004d030700e10f400064
:101d9000030032002fb097000000e800a0b79f00ba
:101da0000c06e800efa89700810f5600f4ff3a00f8
:101db0000081eb00e2af9f000a0037008800780046
:101dc0003100fb0001047800ffb097003c030700de
:101dd000e10f4000030032002fb297000402e80038
:101de000a4b79f000900e90080047800e10f4000db
:101df000f2ff3a000006eb000d00e0000a003a0096
:101e0000c6013700ffb09700000220002c03070036
:101e1000e10f400003003200afb297008502e800f6
:101e2000a5b79f000c06e8006fa89700800f56002a
:101e3000f4ff3a00b90137008fb8970041007800ed
:101e400081bf9f00cf80de00010178008201780011
:101e50000205be000004be000203be000002be0078
:101e60004822de00482edd0004027600e4d79f0001
:101e70000d48a3000a0032000404e000080032000c
:101e8000e14f42000600320071fd2f000180470043
:101e9000044878001840980029002000020037000c
:101ea000f0d79f001900200072fd2f000284470028
:101eb000a1ff370064fd2f000484470019002000b3
:101ec0009dff37000d0cb3000d007800000cb20030
:101ed00028003a000d00e00005003d008fba970091
:101ee0004505be004504be0085bf9f0014003700b5
:101ef0000d48a3000b0032000fbe97004c00be003f
:101f00008cbf9f004f89de00cf91de000002be0033
:101f100002037800820378000605be000404be00b8
:101f2000070037008fb897004100780081bf9f00fd
:101f300000047800cfc4de00090578008a05780027
:101f4000e00f5400e08f5c00e00f5d00e08f5d006b
:101f50001f003d003d00b3006000b8006011b800f4
:101f600008045000898458000a0559008b855900df
:101f7000170037000d00e00005003d000fb9970085
:101f80004205be004204be0082bf9f001000370021
:101f90000d48a300070032000fba97004400be00ae
:101fa00084bf9f006011b8000205be000004be009f
:101fb000070037008fba97004500780085bf9f0063
:101fc00000047800090020000a0020000b00200017
:101fd0003fb697000c00e00007003a00e00f540005
:101fe000e08f5c00e00f5d00e08f5d0002003a00d2
:101ff00010002000b0b79f008d007800010cb200e7
:10200000e1b79f0000042000808f500030003200b4
:1020100003003c000100e0000800320040003700ef
:10202000000820006fb19700800f510014003200ab
:10203000000c2000800f510039003a0014c0b3009a
:10204000055122000b0037000400fb004300dd00b7
:10205000050040005001be004000be000040e1000d
:1020600001c8e10002d0e10003d8e1002b003900f3
:102070000442e800f44f5200f3ff3a002700370013
:1020800000012000010020006011b80014c0b3005e
:102090000040e10001c8e10002d0e10003d8e10006
:1020a0001e003900450020000000d0008180d200d1
:1020b0000281d2008381d2008502e900faff3a0052
:1020c0000442e800f04f5200f1ff3a0013003700dd
:1020d00080002000010020006011b80014c0b3008f
:1020e0000040e10001c8e10002d0e10003d8e100b6
:1020f0000a0039003c0020000000d0008180d2009e
:102100000281d2008381d2000c06e900faff3a0076
:102110000442e800f54f5200f1ff3a00e4d79f0077
:10212000efd097000100fb003fb19700820f5000f5
:1021300002003d00e2d79f00040037003fb2970045
:10214000800f520001003d00b0b79f00cfb2970052
:102150000500e000040032006380660002003200e7
:102160008502e900c5b79f000de8a3000b0032000f
:102170004fb697003fb09700800f560003003c0019
:102180008000eb00c1b79f00040037004fb19700fb
:102190003fb2970004015100c2b79f00efd29700f1
:1021a0000500fb000006eb00dcaf9f00cfb09700fe
:1021b000808f50000200340000805000d0af9f009c
:1021c0000d28a30037003200e18066000d18a3003f
:1021d0000c003200d00220000100e00001003a00b3
:1021e0000080e900ffb0970035020700e10f4000d2
:1021f0000e0032002fb197000201e800a2b79f0045
:102200000a0037000100e00008003200ffb097002c
:10221000000220002a020700e10f40000300320004
:102220002fb297000402e800a4b79f00dfaa97002e
:102230000500e0000f0032000006eb00ffb0970041
:10224000000320001e020700e10f400003003200df
:102250002fb097000000e800a0b79f000c06e80030
:10226000dfa89700810f5600f4ff3a000001eb0051
:10227000d2af9f003fb29700c320dd008050220004
:102280008080400091b79f004220dd006400500034
:1022900080b79f006320b900f0af9f006306500035
:1022a00084003700dfaa97000500e000110032002b
:1022b000688066000f003a0000067800ffb09700c3
:1022c00000022000fe010700e10f40000300320081
:1022d0002fb097000000e800a0b79f000c06e800b0
:1022e000dfa89700810f5600f4ff3a000001eb00d1
:1022f000d2af9f00e18066000d18a3000c003200f1
:10230000d00220000100e00001003a000080e90056
:10231000ffb09700ea010700e10f4000d5ff32004f
:102320002fb297000402e800a4b79f00d1ff370046
:102330000100e000cfff3200ffb097000002200054
:10234000df010700e10f4000caff3200afb2970083
:102350008502e800a5b79f00c6ff370000042000f3
:10236000efb09700808f50003100320003003c0036
:102370000100e000080032003e00370000082000a5
:102380006fb19700800f510011003200000c200047
:10239000800f510037003a001fb097003002be0096
:1023a0002003be000800be000a01be0004fb0700b7
:1023b000a4002000050020006033b80007fb0700e0
:1023c00004c3b30004424000e4d79f002900370053
:1023d00075862200d5b79f000d58a30002003a0071
:1023e00080872200d0b79f00140020000500200045
:1023f0006033b8008fb097008100e900050033001a
:102400000402d0008582d2000683d2008783d200e6
:10241000f9ff37000800be000a01be00e8fa070015
:102420006f0060005fb197006240780010003700d5
:1024300014002000050020006033b8000c00780074
:102440000000e900050033000402d0008582d200bc
:102450000683d2008783d200f9ff37000800be0050
:102460000a01be00d6fa0700674060000043b000d2
:10247000e0d79f00efd097000100fb00ffb097006e
:102480008f010700e10f4000030032002fb19700d9
:102490000201e800a2b79f001fb297006802520035
:1024a00094b79f008fb29700e482520085b79f00d7
:1024b00063065600d0ff2f003fb197000090b9008f
:1024c0007faa97000000420063005000800f560072
:1024d000a2ff3a000d38a30010003200dfaa9700d7
:1024e0000500e0000d0034000006eb00ffb097008f
:1024f0000002200072010700e10f400003003200db
:102500002fb097000000e800a0b79f000c06e8007d
:10251000dfa89700810f5600f4ff3a00be40780014
:10252000e1d79f000104e0005dfd3a002fb0970065
:102530004f0778004f06be004f05be004f04be0097
:10254000ef01b10000000600810178000002eb00fd
:102550000b003700e44078000104e0000300320083
:102560000402e80093cf5000040032008180fb0099
:102570001380fb0000805000000006008301e8008b
:10258000820f5200f3ff3a0000000500889fbe0052
:10259000000478008144780000fd2f000000440012
:1025a000e90f500002003e00000178000d003700e6
:1025b0000800780047f807000000e0000300320040
:1025c0000800780049f80700000478000800780047
:1025d0004df807000000e0000700320090fa2f00dd
:1025e000000144000980fb00800f510002003d0003
:1025f0000280fb0001003700f00f20004f04be00f6
:1026000000000600881f7800204e8100730107003b
:102610000004780046f807000000e000faff3a00e6
:10262000e10f440003003200214e810008007800d1
:102630009e0107004f04780000000600ec87470069
:10264000889fbe008a9fbe008c9fbe008e1f7800b0
:1026500081bf9f0002077800204e89008046eb0072
:10266000040137008884fb000900780030f8070077
:10267000800078000000e00002003200e1ff070067
:10268000fc00370050c2b300804f5400f0003a0005
:102690000fbd970020c0b300c0ef9f00d1ef9f0097
:1026a00081ef9f000300370040c0b300c0ef9f00e0
:1026b0000fbd97000fb99700b240780082bf9f000e
:1026c0008184fb0090c6b30080cf500035003200fb
:1026d00017003e006640500080cf5000620032007c
:1026e0000c003e007740500080cf500028003200a0
:1026f00006003e000104e0009b003200a0c2b300cf
:1027000080cf50006e003a001d00370080c5b30036
:102710001600370040c6b30080cf500021003200c1
:102720006440400080cf500065003a00120037003e
:1027300030c7b30080cf50001e00320007003e00bb
:102740006740500080cf50001100320063404000cd
:1027500080cf50005a003a001400370050c7b30031
:1027600080cf50000f0032006340400080cf500007
:1027700053003a006500370020c0b300cbff37009c
:10278000dfe897008140e800d1ef9f00c8ff3700e5
:102790004fe9970080c0b300e24f5100c3ff3a00f9
:1027a000c1ff3700acc0b300590037008cc0b30084
:1027b0005700370093ff0700dfe897000104e000af
:1027c00002003a004e017800d2b79f00204e8100ef
:1027d0000201070000047800e10f4000a20032006f
:1027e0008fec9700120037000a85e8008abf9f002f
:1027f000160037008fb897001100fb00800f5400bf
:10280000f9ff32005fe997000204e00003003a009c
:102810005fb0970008587800d0b79f008944e9005e
:102820000a003200204e8100ec000700000478000e
:102830000800e800e10f50000400360008007800ae
:10284000bbf707000000e000eaff3200dfe8970076
:102850000104e00087003a008d46e8005fb1970070
:1028600001497800830037005fe897000004e0002a
:1028700003003a008d46e800ce007800d1b79f00f3
:10288000204e8100d5000700e10f400076003200a5
:102890005fe997000204e00003003a00dfb0970010
:1028a00080587800d1b79f000fe997000241e900f6
:1028b00082ef9f004240a9006e003400f0ff370015
:1028c0000180fb0008fd2f0008004000e90f5000c8
:1028d0005f003e000a00780046fb070080ef9f0083
:1028e00088007800030037000fb897000000e80068
:1028f00080bf9f000fb997001200fb00010040004d
:10290000e90f5000f8ff360069ff37000cc1b30033
:102910003cff0700204e8100b00007000005780052
:102920000040eb00e0ef9f00d0022000800f550038
:1029300005003a00204e8100a8000700000578003d
:1029400011c0b300e1ef9f008c4078000a007800ce
:102950000eff0700e14f40000a003a00214e8100bf
:102960000a007800d10007000d04e0004b003a0097
:10297000204e8100300090000048a3004300320048
:10298000480037008fed97006044b8000c81fb00d1
:10299000030020000800be006df707000004be0021
:1029a0008c4078000a007800f8fe07000080fb00e9
:1029b0000100200008044000898448008b45e9009c
:1029c00007003200204e81008400070000057800d7
:1029d0008c407800edfe0700e14f4000ebff3a002d
:1029e0008c4078000a007800e8fe0700e14f4000c4
:1029f00003003a00214e81000a007800ab00070076
:102a00006fe997000204e000020032006004140045
:102a1000e0841c005fe897000004e00015003a0025
:102a20008d46e800cfe89700e4cf500003003a005d
:102a30004e0078000888be000e0037000e81e900c5
:102a400002077800120078000808780009003700b3
:102a5000204e810061000700808f54000500320085
:102a6000e10f40000b003a000d04e0000d003200c1
:102a70000a0037008fb897003144780081bf9f006b
:102a80000804e000f7fe3a00040037000000eb0005
:102a900005003700214e8100840007000d80fb00f7
:102aa000010037000080eb004f0778004f06be00a2
:102ab0004f05be004f04be00cf00b100000006006d
:102ac000889fbe000001780001047800b1009000ea
:102ad0000118a3003d0032000198a30003003a0052
:102ae000180090000000e00038003a000190a000bb
:102af0003104980082047800f90fb20018009000a9
:102b00000000e00002003a0028009000000c78006d
:102b1000ea8f540006003a00380090000078a300c5
:102b200003003a0088007800d0002000e4ff07008e
:102b30009800900058009000808f50000b003200e9
:102b40000100e80010049800180078000958780087
:102b5000000c780011c0b300c09722000148780033
:102b6000ea8f540006003200190037008800780010
:102b7000094078006a0007008004780014003700dc
:102b8000380090000088a300110032001801900066
:102b9000a800900048009000f3f60700980090000d
:102ba000810f500004003200380090000003b30091
:102bb000300498008084eb000000eb0010049800c3
:102bc00028009000000c7800010037008084eb00a2
:102bd000090078004f04be0000000600881f78003e
:102be00000047800b00090000148a30007003a00fc
:102bf0000108a300050032000198a300080032007c
:102c0000100090000000e000050032003800900045
:102c10000040a000300498008080eb0020003700c6
:102c20000190a10031049800180090000000e0001d
:102c3000060034000000e900100498001800780035
:102c4000b080fb00000c78000600370038009000d0
:102c50000068a300edff3a00080078007300070049
:102c600080007800380090000078a3000c003a0043
:102c7000fa8f500008003a00280090000000e000a1
:102c8000e2ff3200180090000000e80010049800f5
:102c9000180ce900ddff3700ed8f5000e2ff320035
:102ca000010078004f0478000000060080017800e1
:102cb000e10f400017003200310090000008a3002f
:102cc000140032000098a30012003a002102900084
:102cd0000400e0000f00320011019000510090004c
:102ce000800f51000b00320011007800840f50005b
:102cf00002003a008008e800020037000200e80005
:102d0000900098001100e9008008780003487800de
:102d1000010037008081eb0003007800000006000e
:102d20000200fa00889fbe00a0ff9f000104780007
:102d3000b1009000810478000904b2000200320062
:102d40000000fb00360037000118a30005003a0020
:102d50000103b30031049800190498000080eb00cf
:102d60002f003700580090000000e00006003a00f5
:102d70004800900012002000e68057007af6070015
:102d80001904980024003700280090000000e0009b
:102d900008003a008097220020049800000c780078
:102da0002000200050049800100498000130a0007a
:102db0003104980018019000a8009000480090008d
:102dc00069f6070028009000000c78000080eb00f6
:102dd0001004980018007800aff8970001587800a8
:102de000000c78002ff89700ea4f50000a003a00d4
:102df000380090000088a3000700320018019000fe
:102e0000a80090004800900057f6070019049800a9
:102e1000a8009000010c7800aff897000100fb00bb
:102e20004f04be000080fa00000006000200fa0015
:102e3000889fbe008a1f7800000478000000eb0025
:102e400010049800380090008080eb000008a30078
:102e50003f003200c09722001004e0001000320052
:102e6000498b2200aa8b22001a0078006c054500cd
:102e70002010b20021102000810f500002003a0003
:102e80000900780037000700ec844400808d2200a0
:102e9000808f5400f4ff3a00c09722000048eb00f6
:102ea00048009000580190000200e0000d003a0038
:102eb0001204980012002000e880570061f6070015
:102ec000e10f500003003a000ff897008080fb00ec
:102ed0001f003700380090000040a0003004980028
:102ee00012003700a800900056f607001004980062
:102ef0000000e00003003200e10f40000d003a0046
:102f000003003700380090000040a00002003700a6
:102f1000380090000003b30030049800a80090002f
:102f2000010c78000000eb00100498008080eb009a
:102f300007003700a8009000010c78000000e900ad
:102f40001004980001007800b080fb00000c7800ad
:102f5000010078004f0578004f04be000080fa00a1
:102f600000000600881f7800000478003000900000
:102f70000008a30007003200800078000120b200a2
:102f800004003a0011049800a8009000010c780099
:102f9000170037000018a300190032000098a300a2
:102fa00017003200a80090000100e0001400320079
:102fb000180190000200e00011003200480090006b
:102fc000e9f5070098009000810f500003003200df
:102fd000380090000003b300300498000000eb00bc
:102fe0001004980028009000000c78003800900031
:102ff0000058a300020032000080eb0001003700ff
:0c3000000000eb004f0478000000060008
:020000040000fa
:020000040005f5
:0457f800eefa0000c5
:020000040000fa
:020000040005f5
:0457fc007f3e0000ec
:020000040000fa
:1000080024280100382801004c280100602801003c
:100018007428010024280100242801002428010054
:100028002428010024280100242801006a24010052
:100038002428010024280100242801002428010084
:10004800242801002428010024280100f2270100a7
:1000580024280100984700002428010024280100d2
:100068002428010024280100242801002428010054
:100078008a2d0100242801002428010024280100d9
:100088002428010024280100242801002428010034
:1000980026230100882801001228010024280100d5
:1000a8002428010024280100242801002428010014
:1000b8002428010024280100242801002428010004
:1000c80024280100242801002428010024280100f4
:1000d80024280100242801002428010024280100e4
:1000e80024280100242801002428010024280100d4
:1000f80024280100b0280100d82801002428010084
:1001080024280100242801002428010024280100b3
:1001180024280100242801002428010024280100a3
:100128002428010024280100242801002428010093
:100138002428010024280100242801002428010083
:100148002428010024280100242801002428010073
:100158002428010024280100242801002428010063
:10016800242801002428010018280100242801005f
:100178002428010024280100242801002428010043
:100188001e28010024280100242801002428010039
:100198002428010024280100242801002428010023
:1001a8002428010024280100242801002428010013
:1001b8002428010024280100242801002428010003
:1001c80024280100242801002428010024280100f3
:1001d80024280100242801002428010024280100e3
:1001e80024280100242801002428010024280100d3
:0801f800242801002428010065
:020000040000fa
:1002080024280100382801004c280100602801003a
:100218007428010024280100242801002428010052
:100228002428010024280100242801006a24010050
:100238002428010024280100242801002428010082
:10024800242801002428010024280100f2270100a5
:1002580024280100984700002428010024280100d0
:100268002428010024280100242801002428010052
:100278008a2d0100242801002428010024280100d7
:100288002428010024280100242801002428010032
:1002980026230100882801001228010024280100d3
:1002a8002428010024280100242801002428010012
:1002b8002428010024280100242801002428010002
:1002c80024280100242801002428010024280100f2
:1002d80024280100242801002428010024280100e2
:1002e80024280100242801002428010024280100d2
:1002f80024280100b0280100d82801002428010082
:1003080024280100242801002428010024280100b1
:1003180024280100242801002428010024280100a1
:100328002428010024280100242801002428010091
:100338002428010024280100242801002428010081
:100348002428010024280100242801002428010071
:100358002428010024280100242801002428010061
:10036800242801002428010018280100242801005d
:100378002428010024280100242801002428010041
:100388001e28010024280100242801002428010037
:100398002428010024280100242801002428010021
:1003a8002428010024280100242801002428010011
:1003b8002428010024280100242801002428010001
:1003c80024280100242801002428010024280100f1
:1003d80024280100242801002428010024280100e1
:1003e80024280100242801002428010024280100d1
:0803f800242801002428010063
:020000040000fa
:10300c002144000045460000000d00000a000000ad
:10301c007478000074000000687400006d000000fb
:10302c00687400006d6c00000063000067690000ac
:10303c00007800006d6c00000063000073730000ea
:10304c000067000069660000007000006e670000f9
:10305c00006a000070670000006300006c610000f3
:10306c000077000061760000000000000000000006
:10307c00000000000e980000129800001698000046
:10308c001b9800001f980000239800002798000050
:10309c002b9800002f980000339800003798000000
:1030ac003b98000074650000787400002f700000dd
:1030bc006c610000696e000000740000657800000f
:1030cc00742f0000687400006d6c00000074000028
:1030dc0065780000742f0000786d00006c00000013
:1030ec0074650000787400002f6300007373000097
:1030fc00006900006d610000676500002f6700002b
:10310c0069660000006900006d61000067650000e1
:10311c002f7000006e670000006900006d610000f8
:10312c00676500002f6a00007065000067000000f2
:10313c0061700000706c0000696300006174000035
:10314c00696f00006e2f00006a610000766100005c
:10315c002d7600006d0000006175000064690000b0
:10316c006f2f0000782d000077610000766500005d
:10317c00000000005898000063980000639800005d
:10318c00639800006d980000769800007f9800000e
:10319c0089980000939800009e980000b298000057
:1031ac00bf98000048540000545000002f3100001c
:1031bc002e3100002032000030300000204f000083
:1031cc004b0d00000a4300006f6e00006e6500009e
:1031dc0063740000696f00006e3a00002063000009
:1031ec006c6f0000736500000d0a000000480000c1
:1031fc0054540000502f0000312e000031200000ec
:10320c0034300000302000004261000064200000d7
:10321c00526500007175000065730000740d0000ac
:10322c000a4300006f6e00006e65000063740000be
:10323c00696f00006e3a0000206300006c6f0000a4
:10324c00736500000d0a00000d0a00003430000008
:10325c003020000042610000642000005265000034
:10326c007175000065730000743a00002063000063
:10327c00616e00002774000020680000616e000081
:10328c00646c000065200000436f00006e74000049
:10329c00656e0000742d00004c6500006e67000028
:1032ac00746800000d0a000000480000545400002f
:1032bc00502f0000312e000031200000343000006f
:1032cc0031200000556e000061750000746800002c
:1032dc006f720000697a0000656400000d0a00003e
:1032ec0057570000572d000041750000746800000e
:1032fc00656e000074690000636100007465000075
:10330c003a20000042610000736900006320000055
:10331c0072650000616c00006d3d000022500000e1
:10332c00726f000074650000637400006564000037
:10333c00220d00000a4300006f6e00006e65000055
:10334c0063740000696f00006e3a00002063000097
:10335c006c6f0000736500000d0a00000d0a000080
:10336c003430000031200000556e00006175000003
:10337c00746800006f720000697a000065640000d8
:10338c003a2000005061000073730000776f00005a
:10339c007264000020720000657100007569000005
:1033ac0072650000640d00000a0000004854000023
:1033bc00545000002f3100002e310000203400004a
:1033cc0030340000204e00006f74000020660000b6
:1033dc006f7500006e6400000d0a0000436f000062
:1033ec006e6e000065630000746900006f6e000073
:1033fc003a200000636c00006f730000650d000044
:10340c000a0d00000a340000303400003a2000009d
:10341c00466900006c650000206e00006f740000af
:10342c00206600006f7500006e6400000d0a00003d
:10343c000048000054540000502f0000312e0000b2
:10344c0031200000343100003420000052650000af
:10345c007175000065730000742d0000555200005a
:10346c0049200000546f00006f2000004c6f0000da
:10347c006e6700000d0a0000436f00006e6e0000c6
:10348c0065630000746900006f6e00003a20000054
:10349c00636c00006f730000650d00000a0d0000e6
:1034ac000a34000031340000205200006571000025
:1034bc0075650000737400002d5500005249000022
:1034cc00205400006f6f0000204c00006f6e000055
:1034dc00673a000020420000756600006665000037
:1034ec00722000006f76000065720000666c0000b0
:1034fc006f770000206400006574000065630000b5
:10350c0074650000640d00000a00000048540000bf
:10351c00545000002f3100002e31000020350000e7
:10352c0030300000204900006e740000657200000d
:10353c006e6100006c200000536500007276000084
:10354c006572000020450000727200006f7200006e
:10355c000d0a0000436f00006e6e000065630000f2
:10356c00746900006f6e00003a200000636c00006c
:10357c006f730000650d00000a0d00000a35000095
:10358c0030300000204900006e74000065720000ad
:10359c006e6100006c200000536500007276000024
:1035ac006572000020450000727200006f7200000e
:1035bc003a2000004578000070650000637400003c
:1035cc00656400002064000061740000612000004c
:1035dc006e6f0000742000007072000065730000b4
:1035ec00656e0000740d00000a00000048540000d5
:1035fc00545000002f3100002e3100002035000007
:10360c0030310000204e00006f7400002049000093
:10361c006d7000006c6500006d6500006e7400003c
:10362c00656400000d0a0000436f00006e6e000020
:10363c0065630000746900006f6e00003a200000a2
:10364c00636c00006f730000650d00000a0d000034
:10365c000a35000030310000204e00006f7400006d
:10366c00204900006d7000006c6500006d65000065
:10367c006e740000656400003a2000004f6e00007c
:10368c006c790000204700004554000020610000c8
:10369c006e640000205000004f53000054200000c6
:1036ac0073750000707000006f720000746500008c
:1036bc00640d00000a000000485400005450000043
:1036cc002f3100002e31000020330000303200007a
:1036dc00204600006f7500006e6400000d0a0000ab
:1036ec00436f00006e6e000065630000746900009b
:1036fc006f6e00003a200000636c00006f730000d6
:10370c00650d00000a4c00006f630000617400003e
:10371c00696f00006e3a0000200000004854000061
:10372c00545000002f3100002e31000020340000d6
:10373c0030330000204600006f7200006269000008
:10374c0064640000656e00000d0a0000436f000009
:10375c006e6e000065630000746900006f6e0000ff
:10376c003a200000636c00006f730000650d0000d0
:10377c000a0d00000a34000030330000204600001f
:10378c006f7200006269000064640000656e0000e6
:10379c003a200000535300004c20000052650000fa
:1037ac00717500006972000065640000202d000036
:1037bc002075000073650000204800005454000080
:1037cc00505300000d0a000000000000d8980000c3
:1037dc00d8980000fd9800005b990000dc9900006f
:1037ec001f9a00008c9a0000fc9a0000629b00005b
:1037fc00949b0000436f00006f6b00006965000034
:10380c003a00000041750000746800006f720000ff
:10381c00697a000061740000696f00006e3a000064
:10382c00004300006f6e0000746500006e740000b1
:10383c002d4c0000656e000067740000683a0000b3
:10384c0000000000009c0000089c0000179c000079
:10385c004745000054000000696e000064650000dc
:10386c00782e0000687400006d0000000d0a000046
:10387c000d0a0000333000003420000052650000b7
:10388c006469000072650000637400003a20000057
:10389c00004300006f6e0000746500006e74000041
:1038ac002d54000079700000653a000020000000e3
:1038bc00436f00006e740000656e0000742d0000f4
:1038cc00456e0000636f0000646900006e670000c5
:1038dc003a200000677a0000697000000d0a0000b1
:1038ec000043000061630000686500002d43000088
:1038fc006f6e0000747200006f6c00003a200000c4
:10390c00006e00006f2d0000636100006368000012
:10391c00650000006d610000782d000061670000fb
:10392c00653d000000360000303000000000000053
:10393c000102000003040000050600000708000057
:10394c00090a00000b5300006574000020530000ae
:10395c0053490000440d00000a00000053650000ac
:10396c00742000004e650000747700006f72000038
:10397c006b20000054790000706500000d0a0000f7
:10398c0000530000657400002053000063610000c8
:10399c006e20000054790000706500000d0a0000d4
:1039ac0000530000657400002043000068610000b3
:1039bc006e6e0000656c0000204c00006973000006
:1039cc00740d00000a000000536500007420000014
:1039dc006c690000737400002072000065740000b4
:1039ec0072790000206300006f7500006e74000097
:1039fc000d0a000000530000657400002045000013
:103a0c00766500006e740000204e00006f7400009c
:103a1c0069660000790d00000a000000446900008e
:103a2c0073610000626c00006520000050530000c0
:103a3c002d5000006f6c00006c0d00000a0000009f
:103a4c00456e0000616200006c65000020500000b3
:103a5c00532d0000506f00006c6c00000d0a00002c
:103a6c0000530000657400002042000065610000f6
:103a7c00636f00006e200000546900006d6500004b
:103a8c006f750000740d00000a0000005365000003
:103a9c0074200000736500006375000072690000fb
:103aac00747900003a200000006f0000706500007f
:103abc006e0d00000a000000574500005034000055
:103acc00300d00000a000000574500005031000086
:103adc00303400000d0a0000005700005041000077
:103aec002077000069740000682000006b650000fe
:103afc00790d00000a000000575000004120000022
:103b0c007769000074680000207000006173000089
:103b1c00732d000070680000726100007365000076
:103b2c002028000057410000524e0000494e000072
:103b3c00473a000020740000686500002066000011
:103b4c006c790000706f0000727400002077000028
:103b5c00696c00006c20000073700000656e000042
:103b6c0064200000616200006f750000742000008a
:103b7c003330000020730000656300006f6e00009e
:103b8c0064730000207400006f200000636100006b
:103b9c006c630000756c000061740000652000000f
:103bac0074680000652000006b6500007929000036
:103bbc000d0a0000005700005041000032200000a8
:103bcc007769000074680000206b000065790000c4
:103bdc000d0a000000570000504100003220000088
:103bec0077690000746800002070000061730000a9
:103bfc00732d000070680000726100007365000096
:103c0c002028000057410000524e0000494e000091
:103c1c00473a000020740000686500002066000030
:103c2c006c790000706f0000727400002077000047
:103c3c00696c00006c20000073700000656e000061
:103c4c0064200000616200006f75000074200000a9
:103c5c003330000020730000656300006f6e0000bd
:103c6c0064730000207400006f200000636100008a
:103c7c006c630000756c000061740000652000002e
:103c8c0074680000652000006b6500007929000055
:103c9c000d0a0000005700005041000020410000b8
:103cac00555400004f200000776900007468000034
:103cbc00206b0000657900000d0a00000057000021
:103ccc005041000020410000555400004f200000de
:103cdc0077690000746800002070000061730000b8
:103cec00732d0000706800007261000073650000a5
:103cfc002028000057410000524e0000494e0000a1
:103d0c00473a00002074000068650000206600003f
:103d1c006c790000706f0000727400002077000056
:103d2c00696c00006c20000073700000656e000070
:103d3c0064200000616200006f75000074200000b8
:103d4c003330000020730000656300006f6e0000cc
:103d5c0064730000207400006f2000006361000099
:103d6c006c630000756c000061740000652000003d
:103d7c0074680000652000006b6500007929000064
:103d8c000d0a000000530000746100007274000002
:103d9c00205700006946000069200000436f0000b6
:103dac006e6e000065630000740d00000a000000d8
:103dbc0032400000213f00005e5e00005e7100009a
:103dcc00593a00003140000000000000070c0000d0
:103ddc0011160000070c000011160000070c000063
:103dec0011160000070c0000111600000509000058
:103dfc000e140000050900000e1400000509000057
:103e0c000e140000050900000e140000040b000045
:103e1c0010170000040b000010170000040b00002a
:103e2c0010170000040b000010170000060a000019
:103e3c000f150000060a00000f150000060a00000e
:103e4c000f150000060a00000f15000078a40000f2
:103e5c006ad7000056b70000c7e80000db7000000e
:103e6c0020240000eece0000bdc10000af0f00000a
:103e7c007cf500002ac600008747000013460000ae
:103e8c0030a800000195000046fd0000d898000005
:103e9c0080690000aff70000448b0000b15b0000ac
:103eac00ffff0000bed700005c890000221100005b
:103ebc00906b00009371000098fd00008e43000091
:103ecc0079a6000021080000b4490000622500001a
:103edc001ef6000040b3000040c00000515a000024
:103eec005e260000aac70000b6e900005d100000c5
:103efc002fd60000531400004402000081e600009d
:103f0c00a1d80000c8fb0000d3e70000e6cd0000fc
:103f1c00e1210000d607000037c30000870d000028
:103f2c00d5f40000ed1400005a45000005e900002e
:103f3c00e3a90000f8a30000effc0000d902000088
:103f4c006f6700008a4c00002a8d00004239000087
:103f5c00faff000081f6000071870000226100006a
:103f6c009d6d00000c380000e5fd000044ea0000e7
:103f7c00bea40000a9cf0000de4b0000604b000087
:103f8c00bbf6000070bc0000bfbe0000c67e000087
:103f9c009b280000fa270000a1ea000085300000f1
:103fac00efd40000051d00008804000039d000008b
:103fbc00d4d90000e5990000dbe60000f87c000095
:103fcc00a21f000065560000acc400004422000093
:103fdc0029f4000097ff00002a430000a7230000eb
:103fec0094ab000039a0000093fc0000c359000002
:103ffc005b65000092cc00000c8f00007df400008b
:10400c00efff0000d15d0000848500004f7e0000b2
:10401c00a86f0000e0e600002cfe00001443000036
:10402c0001a30000a1110000084e0000827e0000d8
:10403c0053f7000035f200003abd0000bbd200007f
:10404c00d72a000091d3000086eb000045760000d3
:10405c00656e0000743a0000204300006f6e000093
:10406c006e65000063740000696f00006e20000034
:10407c0053750000636300006573000073660000f5
:10408c00756c00000d0a000000450000766500000c
:10409c006e7400003a200000436f00006e6e00004a
:1040ac0065630000746900006f6e0000204600001c
:1040bc00616900006c65000064200000202d000088
:1040cc002d20000065760000656e0000744900002c
:1040dc006e6600006f2000003d20000000250000ef
:1040ec00640d00000a00000045760000656e0000bb
:1040fc00743a0000204300006f6e00006e650000f3
:10410c0063740000696f00006e20000054650000ad
:10411c006d7000006f72000061720000696c00002d
:10412c00792000004c6f000073740000202d0000fb
:10413c002d20000065760000656e000074490000bb
:10414c006e6600006f2000003d200000004500005e
:10415c00766500006e7400003a200000436f00008a
:10416c006e6e000065630000746900006f6e0000e5
:10417c00205200006565000073740000616200004d
:10418c006c69000073680000656400000d0a000093
:10419c0000450000766500006e7400003a200000b7
:1041ac00436f00006e6e00006563000074690000d0
:1041bc006f6e000020500000657200006d61000001
:1041cc006e6500006e7400006c790000204c0000dd
:1041dc006f730000742000002d2d0000206500007e
:1041ec00766500006e740000496e0000666f00007a
:1041fc00203d00002000000045760000656e0000a8
:10420c00743a000020530000636100006e2000002f
:10421c0052650000737500006c7400007320000080
:10422c005265000061640000792c0000002500003c
:10423c006400000072650000737500006c7400006f
:10424c00730d00000a000000484500004c4f0000b0
:10425c00204d000043480000504200004f41000038
:10426c00524400000d0a000000450000484c0000bc
:10427c004f2000004d43000048500000424f00000a
:10428c0041520000440d00000a000000415500009e
:10429c0054480000204c00004f470000494e0000dd
:1042ac000d0a0000000d00000a0000004d41000046
:1042bc00494c000020460000524f00004d3a0000cf
:1042cc003c0000003e0d00000a00000052430000bc
:1042dc0050540000205400004f3a00003c000000f5
:1042ec0044410000544100000d0a0000004600004b
:1042fc00726f00006d3a0000200000000d0a0000f3
:10430c00546f00003a200000000d00000a4300002a
:10431c00433a0000200000000d0a00005375000015
:10432c00626a000065630000743a0000200000001f
:10433c000d0a00002e0d00000a0000000d0a0000fe
:10434c002e00000051550000495400000d0a0000d9
:10435c0000000000466c0000797000006f720000d5
:10436c007420000073740000617200007469000016
:10437c006e6700002e2e00002e000000544300003b
:10438c0050000000556e000065780000706500005c
:10439c006374000065640000206500006e6400001a
:1043ac00206f000066200000707200006f67000034
:1043bc00726100006d2e00002e2e00000d0a000010
:1043cc00004900006e69000074690000616c000017
:1043dc00697a0000696e00006720000055440000f7
:1043ec00502e00002e2e00000d0a0000004600008a
:1043fc004c590000000d00000a4e000065770000cb
:10440c00204900005020000041640000647200004c
:10441c0065730000733a0000200000000d0a0000d4
:10442c0000000000466c0000797000006f72000004
:10443c0074200000636f00006e6e00006563000066
:10444c0074650000642e00002e2e00002068000011
:10445c00656c00006c6f0000207700006f7200002c
:10446c006c640000210d00000a00000032300000d6
:10447c0035300000004f00007576000065720000ba
:10448c007400000025630000256900000063000033
:10449c006f6d00006d6100006e640000652000000f
:1044ac006e6f00006e200000766100006c690000e9
:1044bc00646500000a00000057460000204100001f
:1044cc005353000045520000544900004f4e000069
:1044dc003a2000004d6f0000647500006c65000010
:1044ec00204e0000756d0000626500007220000017
:1044fc003d2000000025000064200000200000008a
:10450c004c6900006e650000204e0000756d0000c7
:10451c0062650000722000003d20000000250000b4
:10452c0064000000000000002c010000c800000026
:10453c0001000000c80000002c0100000300000076
:10454c003c0000001e0000000400000032000000cf
:10455c00c800000008000000e8030000e8030000a9
:10456c0008000000e8030000e80300000900000058
:10457c00e8030000e80300001111000022220000f3
:10458c0033330000444400005555000066660000bb
:10459c00777700008888000099990000aaaa00008b
:1045ac00bbbb0000cccc0000dddd0000eeee00005b
:1045bc00cecd0000acab00002e00000000040000cb
:1045cc00a30000000000000050490000435500000b
:1045dc0053320000444f00005432000000460000eb
:1045ec006c790000706f0000727400004e65000062
:1045fc00740000000d0a0000444800004350000005
:10460c002f5000006f7700006572000020650000dd
:10461c00766500006e740000206f0000636300007c
:10462c007572000072650000640000004f6e00009f
:10463c00004f000066660000006900006e66000016
:10464c007261000000610000646800006f6300008c
:10465c000054000043500000000000007072000085
:10466c006f7400006563000074000000616400005a
:10467c006d6900006e000000666c0000797000002f
:10468c006f720000740000002c280000290000004c
:10469c002e000000256c0000690000007061000015
:1046ac00737600000d0a0000000000002564000075
:1046bc002e250000642e0000256400002e2500002d
:1046cc006425000063000000544900004d490000bf
:1046dc004e470000204f000055540000210d0000f3
:1046ec000a00000031320000372e0000302e00008e
:1046fc00302e0000310000004d50000046530000e9
:10470c000201000000000000494400004c4500007c
:10471c000000000000040000a300000000000000e6
:10472c004030000001000000010100000100000009
:04473c000600000073
:020000040000fa
:104740000200fa00004f7800809a220010407800a2
:104750009e4f50001d003200809a220010407800c9
:10476000e24f40000b003200809a22001040780097
:104770000080fb007e00b90080007800a03b220092
:1047800000804000014f22000e000900311878001f
:10479000e001b100809a22001e487800e0cfb3000b
:1047a0009e4f1000090032001e80fb007e00b90001
:1047b00080007800a03b220000804000014f2200d2
:1047c0000e000900b0187800e001b1000080fa0086
:1047d000000006000000fa00909a22009040780045
:1047e000809a22001040780080cf500029003200cb
:1047f000909a220010407800e24f400018003200ea
:10480000c048220000017800909a220010407800f1
:104810000080fb007e00b900fc004000a03b2200ad
:104820000080400090427800909a2200104078006a
:104830000080fb007e00b90080007800a03b2200d1
:10484000008040009000780080fd2f000080400034
:104850008402200013c0b30085407800491107008e
:10486000809a220090407800909a220001487800b7
:10487000c0502200904178008127810080fd2f00e8
:1048800000814000c04822008402200011c0b30013
:104890003c1107000080fa00000006000c00fa003e
:1048a000a0852100000f7800504d81000000e0003d
:1048b00008003a00729902000000000080007800b1
:1048c000f07f2000808060000040200000804000d9
:1048d000504d8900a03b220070288900404b2200e7
:1048e000c20320008000eb007e0a020000000000ee
:1048f0000040eb00204f98000040eb00304f980044
:104900004e0037003e4890008dff07003e48900063
:104910000080fb006600b9008000780080292a0032
:104920000080400090409000214798003e48900051
:104930000080fb006600b9008080e80080292a0022
:104940000080400090007800410798003e489000a9
:104950000080fb006600b900e400400080292a00c6
:104960000080400090007800310798002e409000b1
:104970000080fb000000e000010032002e00370044
:104980001e00780020079800ce0090003e009000a6
:10499000008040001e004000a1022000010f4000e6
:1049a000606523009e0f1000fdff3e00c0502200f6
:1049b000ae409000014878002e0090008002b000c8
:1049c00080278900812781004e00900000804000f0
:1049d0000000e80090278900912781003e009000a8
:1049e00000804000a0278900d000200030288900e6
:1049f000402881000030a1004028890075ff070091
:104a00003e4890000080fb006600b90080007800fe
:104a100080292a000080400090407800304b22001e
:104a2000014878001c0b07003e4890000040e80059
:104a3000304f980001003700ffff37003e489000dc
:104a4000e64f5000afff36000080fa00000006007d
:104a50001200fa001007980021079800624798009a
:104a600043079800244f98000040eb00004f780067
:104a7000990037001e40780031ff07003028810080
:104a8000ed0f500093003a0052ff0700304b220018
:104a9000904078002e48900080cf50008d003a0062
:104aa00080212000802589006e4090000004e000f5
:104ab0000a003a004e009000e0248900402881005e
:104ac0000030a000402889004000200030288900e4
:104ad0004e019000522889007b003700514d810023
:104ae000f03f2000808f500004003600514d8100bf
:104af00080382100808f50000200360000402000e6
:104b0000504d8900504d8100e02489000000e800ec
:104b1000504d89004e009000d0248900d823020017
:104b200001000000f0278900012889004028810049
:104b30000040a000402889006e4090000080fb00eb
:104b4000000f98000e099000e30f51002200320080
:104b50000e089000e30f500004003c000e09900086
:104b6000e10f510058003500040037000e08900096
:104b7000e40f500030003200530037001e00900058
:104b8000ae00900010258900212589000041eb002e
:104b9000624f98006e409000e24f500002003a00d1
:104ba00010c0b300604f9800712581006e499000dd
:104bb0000280fb00610060004201dd00b0ff2f00b9
:104bc0008080600082807000712589000000eb0009
:104bd000302889003c0037000e80e80090009000eb
:104be0000e80e80010007800808040004e009000a9
:104bf00080804000e0248100008068005028890007
:104c00001e009000ae00900010258900212589002b
:104c1000214b22000040eb0080487800d0032000a8
:104c200001002000602489007124890020002000f8
:104c300030288900240037001e009000ae0090004c
:104c400080007800214090000081fb0031409000fe
:104c50000080fb004800dd000200700000017800c9
:104c60001e009000ae0090009080fb00104090006d
:104c70000080fb004800dd00010070008000410062
:104c80004e00900080804000e02481000080680099
:104c9000502889001e009000ae009000800078002f
:104ca000204a22000900090031587800a000b10014
:104cb000a100b100500020003028890011c0b300cd
:104cc00020c0b300ba0607001e80fb0060079800f2
:104cd000060037001e4fe80062c0b3009e4f11006f
:104ce00064ff3600e00f2000600798006e0090001f
:104cf0000080fa00000006000400fa00004f78006f
:104d00001e4078008efe070040288100010021002f
:104d1000010060000000e000060032004028810031
:104d200000c0a10040288900100020001007980052
:104d3000020037000000eb00100798001e009000f2
:104d40000080fa00000006000400fa00004f78001e
:104d50001e4078007afe0700302881008000eb00ba
:104d600011079800e70f500002003a0010002000e1
:104d7000100798001e0090000080fa000000060056
:104d80000400fa00004f78001e4078006cfe070017
:104d9000d0278100e0278900302881001007980083
:104da0001e009000e50f50001f0032001e00900012
:104db000e50f50000a003e001e009000e10f500079
:104dc000150032001e009000e10f5000160039005f
:104dd0001e009000e30f500032003e00120037002a
:104de0001e009000eb0f50001e0032001e009000cd
:104df000eb0f500004003e001e009000e70f500033
:104e000028003e000a0037001e009000ee0f500000
:104e1000210032002300370014be02000000000011
:104e20001d0a0700230037001b0a07002100370076
:104e300011c0b30010c1b3005d060700f02481006b
:104e40000000e00004003200b1278100c02481008e
:104e5000808f5000f6ff3a00800020003028890043
:104e60001400370011c0b30010c1b3005006070092
:104e7000f02481000000e00004003200b12781002e
:104e8000c0248100808f5000f6ff3a00c00020004f
:104e90003028890007003700d00020003028890022
:104ea000040037008040eb0040c1b300400607001b
:104eb000f90907000080fa00000006000200fa006d
:104ec000004f78001e4078001dfe0700402881003a
:104ed0000030a100402889001e407800a8ff07008c
:104ee0000080fa00000006000200fa00004f78007f
:104ef0001e40780012fe070036fe0700e03a22004e
:104f0000214a22000900090031587800d02481008c
:104f1000c01d8900e03a22000080fa00000006006f
:104f20000200fa00004f78001e40780004fe0700df
:104f300028fe0700b1278100c0248100808f500027
:104f40000300320011c0b30000c1b300180607000f
:104f50000080fa00000006000600fa0020479800d2
:104f60002e409000f6fd070030288100004f7800a9
:104f700070c0b3009e4f100006003200b0c0b300f6
:104f80009e4f1000030032000000eb002007980045
:104f900013003700b1278100c0278100808f5000a7
:104fa0000a0039009127810080278100008150008c
:104fb000c1278100b027810000805000000041001f
:104fc0000000e9002007980005003700c027810095
:104fd000b1278100010050000000e900200798007f
:104fe0002e0090000080fa00000006000600fa0083
:104ff00020479800314798002e409000d0fd0700d0
:105000002e409000d4ff0700000f78001e00e00043
:1050100003003a000000eb00200798003a00370038
:10502000100020009e0f100002003a002e40900059
:10503000bbff070040288100011020000100600034
:105040000000e0000b003a009127810080278100da
:10505000008050000000d1009e0f50000500390074
:105060002e409000aeff0700402881000080a00085
:10507000402889006300470000017800c0502200ea
:1050800090407800b02781001400200013c0b300c6
:105090003c0f0700b02781000000e800b02789001e
:1050a000b127810090278100808f500002003900d5
:1050b00080278100b0278900100020009e0f10007b
:1050c00003003a002e40900095ff07000c003700c7
:1050d0004028810001022000010060000000e00083
:1050e00007003a00402881000050a00040288900b5
:1050f000e42302000100000069004000102889003c
:1051000010002000200798002e0090000080fa0078
:10511000000006000e00fa00604798004107980062
:10512000520798000000eb00000f78006e409000de
:1051300083fd07006e40900087ff0700100798006e
:105140001e0090000000e00005003a006e40900054
:1051500073ff07000000eb00600798005500370060
:105160001e009000200798009e0090005e009000b6
:10517000808f5000020036005e00900020079800eb
:105180004028810001102000010060000000e000c4
:105190000c003a0091278100802781000080500098
:1051a0008000d1001e009000808f50000500390063
:1051b0006e4090005aff0700402881000080a00048
:1051c00040288900b12781002e0090008080400097
:1051d00090278100808f50001400390091278100b2
:1051e000b0278100008f50004e0090000001780031
:1051f000c050220090407800b02781001e02780045
:1052000013c0b300df0e07009e0078004e00900030
:1052100001004000400798002e0090001e00500042
:105220002007980080278100b02789004e00900059
:1052300000017800c050220090407800b027810023
:105240002e02900013c0b300ce0e0700b1278100dc
:105250002e00900000804000b02789009e00900042
:105260005e009000808f500003003e006e40900072
:105270002bff07000c0037004028810001022000ae
:10528000010060000000e00007003a0040288100b3
:105290000050a00040288900e42302000100000023
:1052a00069004000102889002e0090001e00400078
:1052b000600798006e0090000080fa000000060071
:1052c0000400fa00004f7800110798001e009000bb
:1052d000d60a020000000000000178009e00900045
:1052e0001e4078008bff0700800078001e009000b1
:1052f000008040000080fa00000006000600fa006e
:10530000404798004e4090000dfd07009127810016
:105310008027810000805000000fe9004e4090007f
:105320000dff0700100798001e0090001e001000df
:105330000080fa00000006000200fa00004f78002a
:105340001e4078000b0007000000e000070032005c
:105350001e407800fafc0700d0278100e027890072
:1053600011c0b30000c1b300110507000080fa00ae
:10537000000006000400fa00004f78001e4078008c
:10538000effc0700d1278100e0278100808f5000cb
:1053900005003900d1278100e0278100808050007e
:1053a0001107980009003700a1278100e02781003c
:1053b00000815000d127810090278100008050009b
:1053c000000041000000e800100798001e00900057
:1053d0000080fa00000006000800fa00204798004c
:1053e000210798002e409000e2ff0700000f780090
:1053f0001e00e00003003a000000eb0030079800b8
:105400002b0037002e409000cdfc07002e009000ae
:105410000000e00008003200c050220090407800f8
:10542000e22781002e0090001400200081417800c6
:1054300011c0b300530e0700e02781000000e80010
:10544000e0278900e1278100a0278100808f50009c
:105450000200360090278100e0278900100020001c
:105460009e0f100004003a004028810000a0a00018
:10547000402889000c0037004028810001022000ec
:10548000010060000000e00007003a0040288100b1
:105490000050a00040288900e42302000100000021
:1054a0000003b00010288900100020003007980089
:1054b0003e0090000080fa00000006000c00fa0098
:1054c0004047980031079800420798000000eb0021
:1054d000000f78004e409000a6ff070010079800cc
:1054e0001e0090000000e00003003a000000eb0006
:1054f00050079800500037004e40900090fc070085
:10550000ce0090001e009000808f500002003600f8
:105510001e00900040079800e12781004e00900097
:1055200080804000a0278100808f50001800360046
:10553000a1278100e027810000805000000fe800d3
:105540003e0090000000e0000c003200c05022003d
:1055500090407800e22781003e0090001e02780013
:105560008141780011c0b300060e07009e0078004c
:105570003e00900001004000300798004e0090006f
:105580001e0050004007980090278100e027890006
:105590003e0090000000e00008003200c0502200f1
:1055a00090407800e22781003e0090004e0290007b
:1055b0008141780011c0b300f20d0700e12781009e
:1055c0004e00900000804000e02789004e009000cf
:1055d0001e004000400798009e0090004e00900082
:1055e000808050004e009000808f500004003e00ec
:1055f0004028810000a0a000402889000c0037004e
:105600004028810001022000010060000000e0004d
:1056100007003a00402881000050a000402889007f
:10562000e4230200010000000003b00010288900fc
:105630004e009000500798005e0090000080fa0035
:10564000000006000600fa00404798004e40900017
:105650003bfc0700a127810090278100008f5000ac
:105660004e40900043ff0700100798001e00900076
:105670001e0010000080fa00000006001000fa0072
:105680006047980041079800520798006307980008
:105690005e0090000000e00003003a000000eb0014
:1056a00070079800440037006e40900024fc07000b
:1056b0006e4090002fff070010079800ee0090004a
:1056c0005e009000808040001e009000808f50009f
:1056d000040036001e009000ee0090000100500013
:1056e00050079800e12781006e0090000080400084
:1056f00020079800a12781002e009000808f500085
:105700000700310091278100a02781008080500090
:105710002e009000008040000000e9002007980063
:10572000a12781002e00900000805000000fe800ab
:105730005e0090009e0f500009003e00c050220005
:10574000904078004e0090005e0290008141780009
:105750002e01900011c0b3008a0d0700140037001d
:10576000c0502200904078004e0090001e02780049
:10577000814178002e01900011c0b300810d070017
:105780005e0090009e005000c05022001041780042
:10579000952781004e0090001e0040000102780015
:1057a000824178000501780011c0b300750d070033
:1057b0005e009000700798007e0090000080fa0064
:1057c000000006000600fa00204798002107980014
:1057d000ae019000120020008e0078002e40900054
:1057e000a6ff07001e4078000080fb000080fa0042
:1057f000000006004000fa0020779800211f980062
:10580000321f9800431f9800541f9800651f98008e
:105810003e1890000000e00003003a000000eb009a
:10582000701f9800320137002e709000c4fb0700f3
:105830002e709000cffe0700800078004e18900078
:105840000080500070079800fe0090003e18900005
:10585000808f5000030031008080eb00711f9800a2
:10586000230137005e1890000000e00006003200bf
:10587000fe0090005e189000808f500002003600fd
:105880005e18900070079800e12781004e18900084
:105890000080400050079800a12781005e00900022
:1058a000808f50000700310091278100a0278100e0
:1058b000808050005e009000008040000000e90001
:1058c00050079800de009000010f9800a12781008a
:1058d0005e009000008050000000e8006007980023
:1058e0004e18900050079800be189000410798008d
:1058f0002e189000300798002e18900090407800e5
:10590000314798002e1890000000e800201f9800f2
:105910000000eb00000f78006e1890000000e0001f
:105920000c003200be40900000c6b30080cf500093
:1059300008003600be409000a0c7b30080cf5000e2
:1059400004003e003e40900001ceb3000140400004
:105950003047980000c2b300204798002e409000c6
:105960008080fb006e009000808f500002003600a7
:105970006e009000204798002e4090008080fb0031
:105980007e009000808f5000020036007e00900064
:10599000204798002e4090008080fb00c0502200dd
:1059a00010417800720047000102780082417800bf
:1059b0000e09900011c0b300f20c07002e409000b9
:1059c0008080fb000e08900001004000000f98004e
:1059d0002e4090008080fb006e009000010050007f
:1059e000600798006e0090000000e00004003a009c
:1059f00090278100000f98000080eb00600798005e
:105a00006e1890000000e0006f0032000040eb00d4
:105a100040479800670037004e4090008080fb00b0
:105a200072004700008040009040780000c6b3003c
:105a300080cf5000160036004e4090008080fb0062
:105a4000720047000080400090407800a0c7b3007b
:105a500080cf50000e003e004e4090000081fb00c1
:105a60004e4090008080fb007200470000804000a4
:105a7000104078008040780000ceb30000c04000a5
:105a80008040780072004700000041000148780023
