:020000040000fa
:080000000002040000000000f2
:020000040000fa
:100400006fa62200007f2400000188000000000089
:100410000c000700c0832f0001002000110007001e
:10042000000020000000e000020032000000020096
:1004300000000000aed40200000000000040da001e
:100440000000fe004440a900a0c420000000e0001d
:100450000300320000002000a00188004440a800f2
:100460000000060091018800800078000000eb0089
:1004700015003700e280400032a0b4009101ba00bc
:10048000e280400032a0b4009102ba00e280400055
:1004900032a0b4000002eb00472bde00f507b200eb
:1004a000602ce10004003a000059eb008301e900f0
:1004b000fdff3e00040037006128e100010032002a
:1004c0000082eb00040007001101ba000200e00006
:1004d000e8ff3a00000006003159ba008301e90044
:1004e0000c0032002159ba008301e90008003200f3
:1004f0000400e00003003a00e280400032a0b400b3
:10050000f5ff370011d9ba008301e900faff3a007c
:100510008100e800e180400032a0b4000000060045
:10052000562d04000100000006d504000000000064
:10053000dabf040000000000ccbe04000000000090
:10054000ecbe040000000000e8bf04000000000052
:10055000f4bf04000000000002bf0400000000001f
:10056000cebf0400000000002ad0040000000000fc
:1005700086cc04000000000096ce040000000000bd
:10058000eeca04000000000074c90400000000006e
:10059000d0cc040000000000b0cd0400000000003a
:1005a0003eca04000000000078cf040000000000f4
:1005b000e2d00400000000009a11040001000000d5
:1005c0004812040001000000341304000100000080
:1005d0009a13040001000000b4130400010000009d
:1005e000cc130400010000008c1404000100000082
:1005f000c43904000100000004d804000000000019
:1006000028dd040000000000b2d904000000000052
:1006100036e9040000000000c68a04000000000063
:100620001c050400000000009e06040000000000fd
:100630003200f80091018800023b88000008bb00ee
:100640000500fc0051052000313b8800a10a200074
:10065000313b880061e7a8000000000000000000b6
:100660003200f900000006000400a100010037007c
:100670000400a0003200f80091018800110024005d
:10068000013b8800f10f20003208bb000400a700e6
:10069000b20078000198bb008301e900faff3a003c
:1006a000680151000400a700680151006800500073
:1006b0001208bb00e2ff3700f30f20003200f80001
:1006c0009101880031002400013b88000208bb0032
:1006d0000388bb00daff37003200f800003b8800d7
:1006e000d7ff37008001eb000200370081717800ee
:1006f0008301e800828f5100fcff3a0000000600f1
:10070000889fbe000004be00105381000000e0007e
:1007100001003200000001000800e00001003a0082
:10072000085381000800be00b10107000004440026
:100730001804e00004003a0040a62200005389009b
:100740000004eb00070037000800be00ba010700f4
:10075000000044001004e000010032000058eb00eb
:1007600000538900080078004f04be000000060016
:10077000800178000001780031407800005978004d
:100780000004e000fcff3a000300780000000600cf
:1007900080007800010037000000e8001004e0004d
:1007a000fdff3a00010050000000060080017800c3
:1007b00000017800010037000201e8001204e000a7
:1007c000fdff3a00020037000201e8008100e80066
:1007d00011407800004978000004e000faff3a0078
:1007e0000300780000000600ec874700889fbe00e9
:1007f0008a9fbe008c9fbe008e1f7800f0b79f00be
:1008000081bf9f0082047800000478000100370057
:100810000804e800184778000e00fb009801070064
:100820000000e000faff3a00d0c2b300804f57004a
:100830000500320000c0e900804f5700020032007e
:1008400000477800010037000804e8000900e000d4
:1008500045003500e18f5400430032004002200083
:10086000808f540040003c000900e0000e0034007e
:10087000f08f54001a003a0000c3b300984f1000e4
:1008800016003a009840900080c7b30080cf500017
:100890000300320080c5b30080cf50000f003a0043
:1008a0000884e8000e003700a900200000c3b30050
:1008b000984f10000a003a009840900080c7b3009b
:1008c00080cf5000040032008900200080c5b300b2
:1008d00080cf500002003a000884e800090120009f
:1008e0000805780000c3b300010037000a05e800de
:1008f0009a4f1000fdff32008a0578006066b8004c
:100900000e0037005079220000425200c4ef9f00d1
:100910006149b9000c00be00ad0a07004fea97001c
:100920000401fb00cf91de008b05e800ccb79f00ef
:10093000ddb79f0000064100818649001b00fb00d7
:1009400057010700800078000901780050792200e3
:100950005a010700000278000000e000e9ff3a00b9
:100960008b0f540006003a000fb897000000e0001b
:1009700029003200ffb097000108780026003700f8
:100980008a8055000077220060c07c000000fb00d8
:1009900000805000160033004240a9000f003c00c8
:1009a0004fe997000200fb00cf80de0000005600f8
:1009b00081805e00800f5600818f5e000700390045
:1009c0006149b900880a07004fb19700dfb197006d
:1009d000820f5000838f5800050032002002200053
:1009e000605189000086eb008086eb00050037002f
:1009f000d0c2b300804f570002003a0060061600d4
:100a0000e0861e008fb997000300e000030032006b
:100a10008b097800010037006066b8000c00be004a
:100a20004f0778004f06be004f05be004f04be00c2
:100a3000cf00b10000000600881f78000204780093
:100a40009a000700080040004f04780000000600ec
:100a50000000fa00881f7800000478003fb9970072
:100a6000ea81570080007800c05120002301070070
:100a7000800078000000e000020035000040eb003c
:100a800000f47800010078004f0478000080fa003c
:100a900000000600881f7800804f81000000e00001
:100aa0000100320000000100504f81000000e00012
:100ab0000100320000000100002d81000000e00074
:100ac0000100320000000100d02c81000000e00095
:100ad0000100320000000100209f22001004e0000d
:100ae00026003a00604f8100714f81000004eb0046
:100af000d260260093012000350a0700f2352f004e
:100b0000e3c6230000004100818049000804e8009a
:100b1000e80f5400f6ff3a00604f8900714f8900da
:100b2000285a2200d260260093012000604f8100e5
:100b3000714f8100260a0700f2352f00e3c623001b
:100b40000000410081804900604f8900714f890099
:100b5000009cbe0020622200800f5400f1ff3a008a
:100b6000f030810001318100e02c8900f12c8900f6
:100b700011c0b300209f220001487800d2602600f7
:100b800093012000604f8100714f8100100a07001f
:100b9000f2352f00e3c623000000410081804900a8
:100ba000604f8900714f8900c259220012017800fc
:100bb0007f0161004211dd00235a22000301410040
:100bc0001202be00e42c8900f52c89000089be00c9
:100bd000e02c8100f12c81004008de0000f0a10033
:100be0004f04780000000600881f78000004780099
:100bf000804f81000000e000010032000000010091
:100c0000209f22000048eb00504f81000000e000d0
:100c100001003200000001006140b800604f89000f
:100c2000714f89004f047800000006008001eb003e
:100c300008003700e342780063c278008301e800cf
:100c400084cf5200030032000080eb000400390022
:100c500010000500828f5100f6ff3a000000eb0003
:100c600000000600040037000204e0000a00320021
:100c70000000e8008100e80010417800914f510029
:100c8000f9ff32000081eb0010407800914f5000d6
:100c900004003900020037000001eb0001003700ba
:100ca0001200200002007800000006008001eb0026
:100cb0000200370061f079008301e800828f510063
:100cc000fcff3a0000000600040037000204e000c8
:100cd00001003a00000005000000e8001041780023
:100ce000814f5100f9ff3a0000000600889fbe00c6
:100cf00081047800114478000804e00009003a00fb
:100d00000c0037008001780009017800d24078009b
:100d10000104e00007003200d3cf1000fbff3200d7
:100d20000000e8008800fb00e7ff07000000e0008b
:100d3000f4ff3a004f04be00000006009001780066
:100d40000200e00002003a000308e9000500370055
:100d50008080eb001304e000020032000308e8008a
:100d60009300fb0001007800000006000200fa007a
:100d7000f0bf9f003fb99700ea8157008f80e900dc
:100d8000e0692000160107000080fa00000006005c
:100d9000800078001106b100030035009101b10018
:100da00001003c000050a100000006008001780016
:100db0008002eb00010037008459780005035100e0
:100dc000828f52000900320065c278008502e80077
:100dd0000404e000f8ff3a00830078000681410037
:100de0008058eb00828f5000fdff3a0000000600a3
:100df000000278000b003700010178009241780072
:100e00000304e00002003a00040050000000060065
:100e100083cf5200020032000201e800f7ff3700e2
:100e20000000e800904278000504e000f2ff3a007c
:100e300004005000000006000002780007003700a0
:100e400083cf52000a0032000201e800924178008c
:100e50000304e000faff3a000000e8009042780046
:100e60000504e0000400320001017800f7ff3700bc
:100e700004005000000006000400500000000600be
:100e80006900e100040035006d00e100030034005a
:100e90000002b10001003200000005001000050052
:100ea000800078001104b100030035009101b10009
:100eb00001003c000050a000000006008001eb0093
:100ec000040037008301e80090cf100004003200d6
:100ed0000000e800828f5100faff3a000000eb00aa
:100ee00000000600505181000000e00001003200c7
:100ef00000000100c0a22200000006006200fa000b
:100f0000889fbe008a9fbe000004be0002057800d4
:100f10008300780060f92f000f004000780107007f
:100f200088979f0099979f000000eb00a09f9f006b
:100f30009a4578000b80fb000000ea00cf04de0039
:100f400050c2b30080cf550002003200090478007f
:100f5000010037000904e9000800e0000b0034003c
:100f60001f909700080178008a0078008f91970001
:100f70000300010090979f000000e0009300320002
:100f80002f98970000004400a09f9f00090545008e
:100f900050c2b30080cf5500040032000b04e000c3
:100fa000e3ff3a002f989700890037000000eb001c
:100fb000809f9f00f0979f00e0979f00d0979f0031
:100fc000c0979f00b0979f00c09f9f000900370007
:100fd000409b22000080500000004000819a2200c7
:100fe000e10078004f98970001007000c09f9f00bb
:100ff0000a05e8001a4478008800fb00409b2200a4
:1010000031ff0700800078000000e000f0ff3a00a8
:10101000a0c2b300804f54000e003a00bf88970072
:101020000180e900b08f9f0010007800b09f9f0002
:101030000000e00005003d000000ea00b09f9f00b6
:101040004f9897000020a000c09f9f000a05e8006d
:1010500010003700b19f9f0003fd2f00f4ff270011
:10106000080037003f989700840f500004003200ba
:101070006a00b9000000410003004000b09f9f00db
:101080000a05e8001a01fb0003004100e90f5000c7
:10109000f4ff3600e0c2b3009a4f100004003200a3
:1010a0000080eb00909f9f008a0478001c003700ae
:1010b0008a04e800a0c2b300994f100007003a006c
:1010c000bf8897000180e900b08f9f001000780072
:1010d000909f9f008a84e800110037000000eb0019
:1010e000909f9f0003fd2f00f4ff270008003700aa
:1010f0001f989700840f5000040032006a00b90066
:101100000000410003004000909f9f008904e80018
:101110001901fb0003004100e90f5000f4ff360005
:10112000194478008800fb00c09f2200e6fe0700fb
:101130000000e00002003a0000447800010037009f
:101140008904e800a87f9f0080c6b300804f540048
:1011500004003a00994f14000a003a00664050001b
:1011600006003700c0c6b300804f540005003a00a7
:10117000994f140003003a0065404000a07f9f0093
:101180008904e8000905e800cbfb2f008f854500a6
:101190001901fb0060f92f000f0040000084e800f7
:1011a0008b0178008000780008007800d9000700e3
:1011b0000000e00005003a008b007800080078008d
:1011c000170207000000e00059ff3d000080eb001f
:1011d0004f05be004f04be000080fa00000006006c
:1011e0001200fa00889fbe008a9fbe008c1f780004
:1011f00002047800a0b79f00b1b79f008300780079
:1012000078805700be0007000000eb00e0b79f00a9
:10121000d8b79f0000067800dfb497001945780022
:101220000a80fb000000ea00cf05de000a00fb0098
:1012300013ff07000000e0001a0032006fb09700b3
:101240000000e800e0b79f003fb0970012002000c8
:101250008000eb00afb197000300010000047800ac
:1012600007ff0700000178000000e000f3ff3a00ec
:101270006fb09700e10f4400070032000000e90062
:10128000e0b79f003fb0970088007800afb19700ab
:1012900003000100230037000000e900e0b79f00d1
:1012a0002000370050c2b300804f550002003200ca
:1012b0000b047800190037000b04e9001700370011
:1012c0006fb097000000e800e0b79f003fb09700c4
:1012d000120020008000eb00afb197000300010076
:1012e000800078001900fb00808f50000a00320057
:1012f000e18f40007c0032006fb097000000e900f1
:10130000e0b79f003fb097000001eb00afb197003e
:1013100003000100740037008904e8000804e900b4
:10132000e7ff3b005fb0970080804500d1b79f008a
:1013300050c2b300804f5500030032000a04e000a1
:10134000b5ff3a0068003700a2c2b3000040eb00ce
:10135000914f110003003a000100e800d0b79f0050
:1013600002407800a0f79f000000eb0080bf9f00c4
:1013700003fd2f00f4ff27000a0037000fb8970085
:10138000840f5000040032006a00b90000004100e0
:101390000300400080bf9f005fb097000000e8009e
:1013a000d0b79f00dfb49700194478000801fb0014
:1013b00003004100e90f5000f0ff36008200780082
:1013c000409d220040fe07000000e00002003a00bd
:1013d00000447800020037000900e800d0b79f0001
:1013e000b8f79f0080c6b300804f540005003a0054
:1013f000dfb09700914f14000c003a006640500097
:1014000007003700c0c6b300804f540007003a0001
:10141000dfb09700914f140004003a00654040008f
:10142000b0f79f000100e800d0b79f005fb09700c1
:101430009000fb00b09d220023fe07000000e000aa
:1014400019003a006fb097000000e800e0b79f0075
:101450003fb09700120020008000eb00afb1970072
:10146000030001000004780085fe070000017800f9
:101470000000e000f3ff3a006fb09700e10f440076
:10148000070032000000e900e0b79f003fb097007e
:1014900088007800afb19700030001000200370018
:1014a0000000e900e0b79f007c805700260207009b
:1014b0000000e00003003c000c00e00009003200e6
:1014c000090037004ff097000004e00001003200ef
:1014d0000c06e8005fb097000000e800d0b79f005e
:1014e0004dff3700000678000c0078004f067800aa
:1014f0004f05be004f04be000080fa000000060049
:101500000200fa00f1bf9f00010878000080fa0095
:1015100000000600889fbe008a1f78000004780043
:10152000010278008244780003057800e0c6b30029
:10153000804f5100d200320015003c006b4050003b
:10154000804f5100240032000a003c0070405000df
:10155000804f51000f01320065404000804f510024
:101560007400320050c2b300804f510020013a0095
:101570001c01370040c6b300804f51001b003200f1
:1015800065404000804f510019013a0017003700b4
:1015900030c7b300804f5100fe00320007003c000e
:1015a00064405000804f5100620032000040e8006b
:1015b000804f51000e013a00e700370050c7b300da
:1015c000804f51005b00320063404000804f51006b
:1015d00007013a00570037009180e900010a7800be
:1015e000780090009171780007013700a8609000a2
:1015f000c0c6b30080cf50000a003a0094007800c3
:1016000064805000000a78001000be004f89de00a0
:10161000cf91de000002be00020378008203780052
:101620001300370010c7b30080cf50000300320012
:10163000a0c6b30080cf500006003a0094007800a6
:1016400068805000000a78003002be002003be000f
:10165000070037001480e900000a780010007800c5
:1016600000027800cfa2de00050378008603780030
:10167000049cbe000694be00a860900080c6b30023
:1016800080cf50000e00320020c6b30080cf500043
:1016900005003a000400fb00cf80de000101780065
:1016a000820178000a00370040c7b30080cf5000a5
:1016b000030032006640400080cf500006003a0030
:1016c00004007800cf80de000101780082017800fc
:1016d000009cbe000294be003800be002801be007f
:1016e000e00f5000e08f5800e00f5900e08f5900e4
:1016f00003003d0078009000d1c2b3000a0037001b
:10170000081090000018a300030032007800900039
:10171000b1c2b300040037000008a3005300320038
:101720007800900001c2b300017578000000e80065
:101730004d003700a8609000c0c6b30080cf5000b5
:1017400006003a009400780064805000000a780097
:101750001002be006033b8001300370010c7b3009a
:1017600080cf500003003200a0c6b30080cf5000ed
:1017700006003a009400780068805000000a780063
:101780003002be002003be00070037001480e900cd
:10179000000a7800100078000002780005002000a0
:1017a0000600200007002000049cbe000694be0036
:1017b000a860900080c6b30080cf50000e003200b9
:1017c00020c6b30080cf500005003a000480fb0023
:1017d0000100200002002000030020000a00370062
:1017e00040c7b30080cf5000030032006640400085
:1017f00080cf500006003a0004007800010020006d
:101800000200200003002000009cbe000294be00e5
:10181000081090000038a300140032003800be0009
:101820002801be00e00f5000e08f5800e00f590083
:10183000e08f59000d00320080c7b30080cf540004
:101840000300320080c5b30080cf540007003a0087
:101850007800900001c3b300017578008000e800b3
:1018600009f578000080e800700498007800900086
:10187000000045006004980089407800420037006d
:10188000a8609000c0c6b30080cf50002500320091
:101890000a003c006440500080cf50002800320015
:1018a00000c0e80080cf50001400320068405000b3
:1018b00080cf500022003a000a00370040c7b30032
:1018c00080cf50001e0032006640400080cf5000a4
:1018d0001b0032006940500080cf500018003a00d1
:1018e000060037001480e900000a78001000780034
:1018f000485c900008487800450037001480e900f3
:10190000000a78001002780068089000cf80de009e
:101910000101780082017800009abe000292be00a8
:101920003b0037001480e900000a780010017800bd
:1019300068089000cf80de000089be0034003700c8
:101940001480e900000a780010007800680c90000c
:10195000080878002e0037001180e9008008780020
:1019600010007800cf80de0001017800820178004d
:10197000009cbe000294be0078009000000045006c
:101980006004980081c7b300080078008501070053
:101990001f0037001480e900000a7800100078006a
:1019a00060049800580990000200e00002003d0029
:1019b00077fb0700090037008000eb003ffd0700c0
:1019c000800078000000e000030032006800900012
:1019d000008050000100370058089000100c98005b
:1019e0000b00370078009000027578000600370081
:1019f00078009000800045000904e00001003a00f2
:101a000059c2b300894878000000e80070049800cb
:101a10000000eb004f0578004f04be0000000600f8
:101a20000400fa00889fbe008a9fbe008c1f7800c9
:101a3000000478000106780070089000f80090001b
:101a400001005000880890000100500098089000a4
:101a500001005000a808900001005000b808900054
:101a600001005000c80890008105500000022200cb
:101a700090bf9f0000032300a0bf9f0008109000ac
:101a80000028a30018003a000b00e0001600340004
:101a90008b04780009057800e28f540002003600bc
:101aa0002a002000020037000900e0000b0034008b
:101ab00058009000c80190000a017800ee8057009d
:101ac00003000100500498000000e000960032007e
:101ad0006808900000004500600c98008a8454005b
:101ae0004240a900ebff3c00780190000200e000ba
:101af0000b00340058009000c80190008c00780062
:101b000003000100500498000000e000860032004d
:101b100068089000f800900001004000600c9800f8
:101b2000880c90000900e0001500340009057800d9
:101b3000e28f5400020036002a0020000200370025
:101b40000900e0000b00340058009000c80190002c
:101b50000a017800ec80570003000100500498004f
:101b60000000e000700032006808900000004500ae
:101b7000600c98008a8454004240a900ebff3c00ae
:101b8000180990000200e0000b003400e80090000b
:101b900058009000c8019000030001005004980014
:101ba0000000e00060003200680890009808900093
:101bb00001004000600c9800a80c90000900e000b3
:101bc0001500340009057800e28f54000200360049
:101bd0002a002000020037000900e0000b0034005a
:101be00058009000c80190000a017800ec8057006e
:101bf00003000100500498000000e0004a00320099
:101c00006808900000004500600c98008a84540029
:101c10004240a900ebff3c00380990000200e000c0
:101c20000d003400e800900018089000808040000b
:101c300058009000c8019000030001005004980073
:101c40000000e0003800320068089000b8089000fa
:101c500001004000600c9800c80c90000900e000f2
:101c60001500340009057800e28f540002003600a8
:101c70002a002000020037000900e0000b003400b9
:101c800058009000c80190000a017800ec805700cd
:101c900003000100500498000000e0002200320020
:101ca0006808900000004500600c98008a84540089
:101cb0004240a900ebff3c00081090000028a30060
:101cc0001b0032000b00e000190034008b04780088
:101cd00009057800e28f5400020036002a00200037
:101ce000020037000900e0000b00340058009000ab
:101cf000c80190000a017800ee805700030001003f
:101d0000500498000000e0000700320068089000ce
:101d100000004500600c98008a8454004240a900ed
:101d200003003400eaff37000080eb0001003700b9
:101d30000000eb004f0678004f05be004f04be00c8
:101d40000080fa0000000600881f78000004780078
:101d50000040eb000054980038009000904078005c
:101d600090c6b30080cf50002a00320013003c0020
:101d70007140500080cf50002600320005003c002a
:101d800050c2b30080cf50006400320030c5b300b1
:101d90001b00370030c6b30080cf50001b0032005c
:101da0000040e80080cf50001a0032006940500027
:101db00080cf50006e003a007300370000c7b300b8
:101dc00080cf500007003c000040e90080cf500069
:101dd00010003d000040e90080cf500064003a0050
:101de0000f00370050c7b30080cf50000900320009
:101df0006340400080cf5000060032006540500034
:101e000080cf500043003200590037008000eb00c3
:101e10005e00370008007800eb0107005f00370024
:101e2000684890000004e0005b003a00f848900029
:101e3000c0c6b30080cf5000270032000a003c002b
:101e40006440500080cf50002b00320000c0e800fa
:101e500080cf5000150032006840500080cf500005
:101e600025003a000a00370040c7b30080cf500079
:101e7000210032006640400080cf50001e0032003a
:101e80006940500080cf50001b003a000700370027
:101e9000280090000080e9002004980010007800dd
:101ea000084c9000084878003b003700280090005c
:101eb0000080e9002004980010027800480090009b
:101ec000cf80de000101780082017800009abe0018
:101ed0000292be0030003700280090000080e90028
:101ee000200498001001780048009000cf80de00a8
:101ef0000089be0028003700280090000080e9001b
:101f00002004980010007800480490000808780029
:101f100021003700110020001c003700480090000d
:101f20000000e80040049800180090009801780034
:101f3000120020008000eb00030001008000780008
:101f400050022000808f50001300320048009000a3
:101f5000e18f4000080032000000e90040049800d2
:101f600018009000980178000001eb0003000100c8
:101f70000000eb00090037000000e9004004980071
:101f800001007800050037008080eb000800780031
:101f9000e602070001003700100020004f0478001f
:101fa000000006002f03b000889fbe008a9fbe007d
:101fb0008c9fbe008e1f780000077800b09322002f
:101fc000c0b79f0080c5b30080cf5000080032002a
:101fd000a2922200c2b79f007740400080cf5000fd
:101fe00003003a0083002000b3b79f000a003700c7
:101ff00080c7b30080cf500005003200a40020004d
:10200000b4b79f0080c5b30080cf500002003a00f3
:1020100005012000b5b79f003e04be002e05be009e
:1020200040c6b30080cf500003003200654040003e
:1020300080cf50000b003a00e00f5400e08f5c00ae
:10204000e00f5d00e08f5d0006003d006000b8001d
:102050006011b80008045000898458000a0559002e
:102060008b855900bfb39700e88f530003003200ff
:10207000f08f530045003a00020037003600200080
:102080000100370046002000e00f5400e08f5c00a4
:10209000e00f5d00e08f5d0005003a005e089000f3
:1020a00081012000a1b79f000000e000080032007d
:1020b0003fb197000200e90008006000cfb197002f
:1020c0006340780090df9f0074012000a4b79f0058
:1020d000860278008502e900050033008b05d100f7
:1020e0000a85d3008984d3000884d300f9ff370020
:1020f000089fbe000a97be00afb397000700e90033
:1021000021fc2f008f804000008240003fb19700eb
:102110008202e90012003700afb397008703e9009d
:10212000a7b79f0000806200cfb09700615278008f
:102130003e00be002e01be00860378008703e90042
:10214000050033008381d1000281d3008180d30058
:102150000080d300f9ff3700009fbe000297be0049
:102160003e00be002e01be00e00f5000e08f580080
:10217000e00f5900e08f5900d6003400afb397004c
:102180000700e000e4ff3c00d2003700ae609000a2
:1021900080c6b30080cf50000b00320006003c0028
:1021a0000104e000080032006640500080cf50007b
:1021b00073003a0004003700c0c6b30080cf50005f
:1021c0006f003a0031003700080178000800e00095
:1021d00005003a005e08900081012000a1b79f0031
:1021e0000000e00009003200bfb1970011000900b3
:1021f0000381d8008000fd004fb297006440780052
:1022000090df9f0075012000a5b79f00bfb3970026
:10221000110009000781d80080017800afb0970055
:102220000100e90022fc2f000f01410000024100e3
:102230000c003700bfb29700110009008501d800db
:1022400000017800afb397008703e900a7b79f00ac
:102250000590b90000805100cfb09700615278001e
:10226000820178000300e000030034002fb19700e2
:102270000200e000efff3c0003007800cf80de00aa
:1022800001017800820178003a0037000806be009c
:10229000e00f5400e08f5c0005003a005e089000fb
:1022a00083012000a3b79f000000e0000900320076
:1022b0003fb297006121b9000c00be00b1060700d3
:1022c000cfb297006540780090df9f007701200033
:1022d000a7b79f003fb297006121b9000c00be0074
:1022e000410407000006be00afb297000500e900f8
:1022f00027fc2f008f8343008083430097b79f0004
:10230000110037003fb197006114b9000801be0009
:102310000c00be009e0607000005be00afb197008e
:102320008301e900a3b79f000801be00280407004d
:10233000000056001fb29700cfb297006552780098
:1023400094b79f000a06be00e00f5600e08f5e00c3
:1023500003003400afb397000700e000e9ff3c0042
:102360004feade00cfa2de000c00be0004017800c0
:1023700084017800009fbe000297be005500370020
:10238000e00f5400e08f5c00e00f5d00e08f5d0027
:1023900005003a005e08900081012000a1b79f006f
:1023a0000000e0000d0032003fb19700020278000b
:1023b000cfa2de0005037800860378000800be0087
:1023c0000a01be00b70507004fb2970064407800cd
:1023d00090df9f0075012000a5b79f003fb19700d7
:1023e00002027800cfa2de000503780086037800a1
:1023f0000800be000a01be00a3050700009fbe0042
:102400000297be00afb197000300e90024fc2f0043
:102410000f0242000006420020003700bfb29700c2
:1024200005047800cfc4de00090578008a0578002d
:102430000802be000a03be005fa89700efa897003d
:102440007fa997008fb197009a050700d0b79f002a
:10245000e1b79f00f2b79f0083bf9f00afb3970023
:102460008703e900a7b79f000802be000a03be0069
:10247000160607005faa970000005200cfb297002f
:10248000655678005fb09700efb097007fb1970076
:102490008fb99700009fbe000297be003e00be00ad
:1024a0002e01be00d0af9f00e1af9f00f2af9f00b2
:1024b00083b79f00e00f5000e08f5800e00f5900f5
:1024c000e08f590003003400afb097000100e00036
:1024d000d2ff3c003fb19700e80f510013003a00d3
:1024e0000e1090000038a30010003200afb197002a
:1024f000f78f510006003e0024fc2f000f0242001f
:102500008300420000c3b300914f10000700320067
:10251000afb297008502e900a5b79f0000c3b300e2
:1025200027fc2f008f83430080f37a00afb1970020
:1025300078811100120f98006e00900024fc2f008b
:102540000f02420083004200d8f907001e099000e4
:102550005e089000800f510006003d000200500010
:10256000000f98000e1090000040a1000017980086
:102570000f0037000000e0000d003d000e1090003d
:1025800074006000f00f500009003a007e089000cf
:10259000fe009000010050008e08900001005000e5
:1025a000020050004240a90001003400000f9800d2
:1025b0004f0778004f06be004f05be004f04be0017
:1025c0002f03b100000006002f02b000889fbe005c
:1025d0008a9fbe008c9fbe008e1f7800800478000a
:1025e000600090000000e00001003c00f0ff2700c8
:1025f0000000e900d0049800c90090000c003300ee
:102600000100e800c00498001900900099017800ca
:10261000120020008000eb0003000100000578009c
:10262000b0022000800f550006003a000b00370072
:102630000100e800c00498002cfd2f000f064600a2
:102640001b003700d0022000800f5500030032002d
:102650002cfd2f000f0646001600370030fd2f001e
:102660000f044000aad79f00590090000000e90025
:10267000d0049800c90090000a0033000100e8006f
:10268000c004980019009000990178001200200001
:102690008000eb00030001000005780008067800c8
:1026a000040037000100e800c00498000806780024
:1026b0000085eb00b8902200390090009000fb00ec
:1026c0000800780080f907000800500041902200bf
:1026d000614478008805fb0000032000800f55004e
:1026e00033003a00590090000000e900d00498003f
:1026f000c90090000c0033000100e800c0049800fd
:102700001900900099017800120020008000eb0071
:10271000030001000005780080072000800f5500ad
:1027200005003a00070037000100e800c0049800e7
:102730000085eb001b00370080052000800f55004e
:1027400018003a000804e00002003200f04f540084
:102750001d003a00590090000000e900d0049800e4
:10276000c9009000090033000100e800c00498008f
:102770001900900099017800120020008000eb0001
:102780000300010000057800030037000100e800a5
:10279000c00498000085eb000047eb000b0120000f
:1027a000110037000804e000b800320006003700ce
:1027b0000047eb000804e00004003a00ad002000f0
:1027c000084778001c0037001ec0b300ad00200091
:1027d000ea4f540018003200e88f550002003a001a
:1027e0008b067800140037006d01200012003700be
:1027f000590090000000e900d0049800c900900042
:10280000090033000100e800c0049800190090009e
:1028100099017800120020008000eb000300010005
:1028200000057800030037000100e800c0049800ac
:102830000085eb001ec0b30000032000800f550090
:10284000ebff32000e04e00018003200005e78005a
:10285000160037006f805700800f560001003100ce
:102860000a5e7800590090000000e900d00498004a
:10287000c9009000090033000100e800c00498007e
:102880001900900099017800120020008000eb00f0
:102890000300010000057800030037000100e80094
:1028a000c00498000085eb001ec0b300e10f450096
:1028b000070032000d0178008a0078003091220074
:1028c0007ef907000000e000e2ff3a0066003700f2
:1028d000490090000000e900c00498000e04e000e8
:1028e00008003a0020fd2f000f004000800f560026
:1028f0005b003a00e10f450059003a008a00780079
:1029000065003700004eeb00694890001100200080
:102910000004e00060003a00390090009040780028
:1029200040c6b30080cf5000030032006540400035
:1029300080cf50000a003a000b0178008000eb00c5
:1029400020fd2f000f004000650107000203be00bc
:102950000002be0010c0b300805498000d00370084
:102960000b0178008000eb0020fd2f000f004000dd
:10297000b50107000203be000002be0010c0b30094
:1029800080549800b900900000c7b300914f100028
:102990002c003200f9489000c0c6b30080cf500030
:1029a000220032000a003c006440500080cf5000fa
:1029b0002400320000c0e80080cf50001400320034
:1029c0006840500080cf50001e003a000a003700d7
:1029d00040c7b30080cf50001a003200664040006c
:1029e00080cf5000170032006940500080cf500067
:1029f00014003a0006003700290090000080e9002a
:102a0000a0049800100078000448780012003700f5
:102a1000290090000080e900a004980010007800d0
:102a20000498be000690be000b00370029009000fd
:102a30000080e900a0049800100078000488be001f
:102a400005003700290090000080e900a0049800ec
:102a50001000780004087800110020000e003700f4
:102a60008000eb000c003700490090000000e900f6
:102a7000c004980019009000990178000001eb0053
:102a80008a0078000300010094ff37001ec0b300e5
:102a90008b00200052ff3700010078004f077800bc
:102aa0004f06be004f05be004f04be002f02b1000e
:102ab0000000060080017800d4c2b3000f00370088
:102ac0000300e800904f120008003a0093cf100076
:102ad00003003e002340900080cf500012003600db
:102ae000e3814100630151000400370093cf1000df
:102af0000d0032000201e90080017800e20f510070
:102b0000efff3e000002eb000400370064c07900d4
:102b10000402e800814f500003003200820f52008f
:102b2000faff3a000000050010000500f08747009a
:102b3000889fbe008a9fbe008c9fbe008e1f7800bb
:102b400000047800810678000000eb00c0b79f0009
:102b5000f8489000c0c6b30080cf500002003a0091
:102b600011002000c1b79f000d00e00023003d00d0
:102b7000b80090000100e80030049800e2c5b300fe
:102b80008041eb0083f79f00904f110003003a0053
:102b90000180e8003004980082f79f00b80490009c
:102ba000d0c5b300994f1000020032000900780030
:102bb000010037000900e800d105200042f80700b5
:102bc000d0b79f008000eb000000e000bd003200a5
:102bd00009065000e20f5600080034000c81e9009d
:102be0000900e800d1022000b4f8070011c0b300ca
:102bf000c1ef9f000000e00002003a008041eb00be
:102c0000c3ef9f00680090000000e00004003c005b
:102c1000f0ff27000d00e00001003a001000200046
:102c200050049800684890000004e0000d003a004d
:102c300028009000cfb097000100e00005003200ae
:102c40000080e9002004980010007800b0b79f00d1
:102c5000040037000080e90020049800100078008c
:102c6000f0b79f000045eb005e0037000d00e0006c
:102c7000030034000900780081f807001e003700c7
:102c80000d00e0001e003200cfe997000304e000d1
:102c90000c003a00380090008ff097000104e0002b
:102ca00004003a000c0178008900780083f80700de
:102cb0000b0037000c017800890078007ff80700ce
:102cc0000d003700380090008ff197000304e000fa
:102cd00006003a000c0178008900780075ff0700b3
:102ce0000000e00006003a006d0037000c0178009b
:102cf000890078006fff07000000e00068003a00dc
:102d00004fb097000000e00009003a0068489000ca
:102d10000004e00032003a00ffb0970089587800c4
:102d2000f1b79f0010c0b300005498002c0037008a
:102d3000c9e79f008905fb000b0078000100320005
:102d400010002000000578001e0020000000e000b8
:102d500016003a000904e00004003a007c805700a5
:102d60008bf607000005e800100037000e07e900a9
:102d7000fc81570063407f008000fb004801900009
:102d8000e14f4000070032000200e90040049800d3
:102d900018009000980178000001eb00030001008a
:102da000020037000200e900400498008e0f550031
:102db000eeff3500684890000004e00005003a008e
:102dc0003fb097000b187800b0b79f0010c0b30059
:102dd00000549800680090000000e900600498002a
:102de0002ac0b300580090000000e9005004980089
:102df000480190000b0033000200e80040049800f6
:102e00001800900098017800120020008000eb006c
:102e10000300010080047800e10f400093ff3a00b6
:102e2000020037000200e8004004980048009000cb
:102e30000000e900400498000d00e00002003200ac
:102e4000e24f5500040032000a00fb008080eb00d6
:102e50001c00320010003700684890000004e000b9
:102e600009003a00cfb097000100e00003003200f3
:102e7000bfb197008009eb00030037008fe897008f
:102e80007fb09700014878000d00e00002003d008f
:102e9000dfb19700330498001100200009003700cb
:102ea000480090000000e9004004980018009000dd
:102eb000980178000001eb00890078000300010010
:102ec000ddff3700010078004f0778004f06be0095
:102ed0004f05be004f04be000f01b1000000060008
:102ee0000200fa00889fbe008a9fbe008c1f7800f7
:102ef0008005780001057800020678000100e000f6
:102f000001003a006c8557000b047800010037007f
:102f10000804e800984478000900fb00d8f707008f
:102f20000000e000faff3a00d0c2b30080cf5400a6
:102f30000500320000c0e90080cf540002003200da
:102f400080447800010037000804e8000c01780094
:102f50008a007800080078003b0007000203be00ea
:102f60000002be009a0f540001003a000b0d7800d9
:102f70009a8f550005003a00e00f5200e08f5a008a
:102f8000e00f5b00e08f5b0014003a00b0c2b300ba
:102f900080cf540006003a00e00f5200e08f5a0044
:102fa000e00f5b00e08f5b0020003d000b0037006e
:102fb000d0c2b30080cf54001c003a006000b800bb
:102fc00002002000030028000020e10001a8e10029
:102fd00002b0e10003b8e1000e003600200220003c
:102fe000605189006b40400080cf540004003a00db
:102ff0006000b80002002000030028000d00370028
:10300000f0ff2f00f1ff2f00f2ff2f00f3ff27004a
:10301000080037006000b8006011b80004025000da
:103020008582580006035900878359000400be00ba
:103030000601be004f0678004f05be004f04be00db
:103040000080fa0000000600fc874700889fbe0051
:103050008a9fbe008c9fbe008e1f780000077800fc
:1030600081067800820478000004780001003700af
:103070000804e800184678000c00fb0080f7070001
:103080000000e000faff3a00d0c2b300804f5600c3
:103090000500320000c0e900804f560002003200f7
:1030a00000467800010037000804e8000900e0004d
:1030b00005003500e18f540003003200400220007b
:1030c000808f5400040034000d00e000b000320096
:1030d0008e0e7800ae0037000900e0000e003400cc
:1030e000f08f54001a003a0000c3b300984f10004c
:1030f00016003a009840900080c7b30080cf50007f
:103100000300320080c5b30080cf50000f003a00aa
:103110000884e8000e003700a900200000c3b300b7
:10312000984f10000a003a009840900080c7b30002
:1031300080cf5000040032008900200080c5b30019
:1031400080cf500002003a000884e8000901200006
:103150000805780000c3b300010037000a05e80045
:103160009a4f1000fdff32008a0578006022b800f7
:103170006033b80026003700f07d220080c0500088
:1031800081ef9f0009027800cfa2de0005037800de
:10319000860378000fb097009fb097002fb197007b
:1031a000bfb19700c9020700d0b79f00e1b79f00e9
:1031b000f2b79f0083bf9f000fe897000002fb005b
:1031c000cfa2de0005037800860378008b05e800b7
:1031d0000fb097009fb097002fb19700bfb1970035
:1031e000c0af9f00d1af9f00e2af9f00f3af9f0041
:1031f0005fb09700efb097007fb197008fb997004d
:103200000002420081824a0002034b0083834b008c
:1032100084b79f0095b79f00a6b79f00b7b79f00e0
:103220001b00fb001ef707008000780009017800f2
:10323000f07d220021f70700800078000000e00008
:10324000cdff3a008b0f54000a003a000d00e00059
:103250004f0032008e0e78006022b8006033b80054
:1032600084b79f0095b79f00a6b79f00b7b79f0090
:103270004d0037008a805500a07b220060c07c0092
:103280000000fb00008050002c0033004240a900e9
:1032900020003c008fea97000500fb00cf80de0095
:1032a00001017800820178000fb297009fb2970069
:1032b0002fb39700bfb397000000520081805a00df
:1032c00002015b0083815b000020e10001a8e100b6
:1032d00002b0e10003b8e1000e00390009027800f5
:1032e000cfa2de000503780086037800e601070020
:1032f0004faa9700dfaa97006fab9700ffab97002c
:103300000400e1000588e1000690e1000798e10073
:103310000a0032002002200060518900f0ff2f00d7
:10332000f1ff2f000001be0080b79f0091b79f0002
:10333000a2b79f00b3b79f0011003700d0c2b300ff
:10334000804f56000e003a006000b8006011b800cf
:103350000fb297009fb297002fb39700bfb39700ab
:1033600004025000858258000603590087835900e3
:1033700084b79f0095b79f00a6b79f00b7b79f007f
:103380000d00e000080032008b0e780006003700c8
:103390006000b8006011b80080b79f0091b79f002f
:1033a000a2b79f00b3b79f000fb097009fb09700e0
:1033b0002fb19700bfb197004f0778004f06be00ae
:1033c0004f05be004f04be00cf01b1000000060053
:1033d000020ab900001bb9000200b80081004200d7
:1033e00081004300000006006022b80006022000b1
:1033f0000000d0008180d2000482d2008582d200f9
:103400000000a0000202520083825a000300310033
:103410000202420083824a000000a1000603e90084
:10342000f3ff3a0000000600889fbe008a9fbe009e
:103430008c1f7800650207006c02330003866c0065
:103440006450e1002e0032006420e10033003200bd
:103450006150e1002f0032006120e10031003200b4
:1034600085855500eb07b000090020000804200006
:10347000050037000804440089844c000a0031002c
:103480000603430087834b000001530081815b00ea
:10349000f8ff33000203be000800a0000804440047
:1034a00089844c00f6ff3900c639dd0083017300c2
:1034b00001003200130020008904d1000884d300e9
:1034c0000998a300050032000800a7000300a0002f
:1034d0008904d1000884d3008b05e8008904d10059
:1034e0000884d3000001eb000281d2004f020700e4
:1034f00001f0a1000cf0a70001f0a0004402370089
:103500006420e100460232000801be000200be0055
:10351000f7ff37006120e100410232006000b8008f
:10352000f3ff37000000200001f82700f0ff37000c
:10353000f4ff2f00630237000001be007c02070089
:103540000470a70003f0a10003f8a30013003a00e1
:103550006509b10010003200090035006928e1005a
:1035600002003500010028000000050000004000b6
:10357000818048008502e900fcff3a000000060057
:10358000f88f4200050035008100d1000080d30093
:103590008502e800fcff3a00000006008000eb0016
:1035a00000000500889fbe008a9fbe0001057800cc
:1035b0000100e0000400350008003c000000e000cd
:1035c000200032000500370060001000e080180085
:1035d00002003b0001f02c001a0037000004be007e
:1035e0006011b8006b0920000982cf000200390089
:1035f0000882cf000441b000694252000e00320040
:1036000008003b0082817100610164008904d100df
:103610000884d3008b05e8000442e800f9ff3a0073
:10362000050037000804440089844c008b05e9003c
:103630000442e900fbff3a00fc0107000af0a70082
:1036400001f0a0004f05be004f04be0000000600c0
:1036500003f0a200889fbe008a9fbe008c1f7800e6
:10366000da010700e10133006450e1004f0032004d
:103670006420e1005200320003826c0007003b002e
:103680000905d0000306d000820f54000c065d002f
:103690000200390002003200890178000306780038
:1036a0008582550004003d000003fd008103fd00fc
:1036b0008502ea008b854200840f720002003b0005
:1036c00060001000e08018006011b8000005eb00f9
:1036d0007a28e1000a00390006007800c75ddd00a5
:1036e000f707b200878075002d00370082817100d6
:1036f0000a017800610560008180d1000080d3005c
:103700008502e900f9ff3b00060440008784480079
:1037100002003b0060041400e0841c000988a30040
:10372000070032008a8171008281710061016400aa
:103730008904d1000884d3008b05e8001700370006
:103740000978a30013003a000b00e00013003400d6
:103750008b05e9000804440089844c000a44740085
:103760000978a3000d003a000b00e00007003400c8
:103770008b05e9000804440089844c0001003a00ec
:103780000b0020000978a300f7ff32000001eb00d6
:1037900002003700828171000a017800a30107004e
:1037a0000cf0a70001f0a000990137006420e100af
:1037b00002003a00838f6c00990133000801be00bb
:1037c0000200be0092013700889fbe008a9fbe00a3
:1037d0008c1f78007d0107008401330003866c0094
:1037e0006450e100240032006420e1002700320030
:1037f0006150e100220032006120e100210032002e
:103800008b854200eb07b1000134b800003ab800e4
:103810000804420089844a00013ab8000030b80028
:103820008880400009014a00040033000000400085
:1038300081804800020149008b05e900c909dd00cb
:10384000830170000100320013002000c814de0064
:103850004814dd004709de001200b200c808de008f
:10386000088470007101070001f0a1000cf0a700ae
:1038700001f0a000660137006120e100680132001c
:103880000801be000200be00f7ff37006150e100f2
:10389000fcff3a0062013700140020008901370064
:1038a000881f7800000478005001be004000be0070
:1038b00004004000858048000601490087814900d6
:1038c000009cbe000294be000400e1000588e100f7
:1038d0000690e1000798e100020031006800440012
:1038e0001008e8004f04780000000600f487470045
:1038f000889fbe008a9fbe008c9fbe008e1f7800ee
:103900000205be000004be00d4b79f00e5b79f00cb
:10391000f6b79f0087bf9f000000eb00c0b79f0075
:10392000b0b79f00a0b79f0090b79f0080b79f00df
:103930000d042000bfb097004fb097000001400079
:103940000000e0000f003d004f08de0000007100a5
:10395000c0b79f009e00070001003d00120020003c
:10396000a100070001003d0012002000a600070092
:10397000b1000700b60007000f004000c8ff0700b5
:10398000220037004f08de0000067100ccb79f0010
:103990008f00070001003d00120020009200070088
:1039a00001003d001200200097000700a200070060
:1039b0000fb297009fb297002fb39700bfb3970045
:1039c000a90007000000520081805a0002015b003c
:1039d00083815b0080b79f0091b79f00a2b79f00d3
:1039e000b3b79f000007eb009f0007000020e10035
:1039f00001a8e10002b0e10003b8e10001003100dc
:103a00001e0020000e005600c0b79f004fb2970066
:103a10000400e00007003500100020000100200035
:103a20006011b80008047000898470000a057100f4
:103a30008b8571008d06e900beff3a000400e000ae
:103a400003003d00820007000f00400094ff0700c4
:103a50004fa897000000e00004003a000fb4970060
:103a60009fb497002fb59700bfb59700940007004b
:103a70004f0778004f06be004f05be004f04be0042
:103a80004f01b10000000600881f780018002000d8
:103a9000881f780095ff07008f87e9004f047800a2
:103aa00000000600801feb0090ff07008f87e900f1
:103ab00000000600889fbe008a9fbe008c1f780011
:103ac0006e00070007003d0073000700e00f5b0079
:103ad000e08f5b0007003d00320007000006eb00ae
:103ae000040037003400070002003d002a000700f0
:103af0001c00200072000700e3ff07000203be0065
:103b00000002be000c00e0000100320022000700ad
:103b10000400be000601be004f0678004f05be003f
:103b20004f04be0000000600889fbe008a9fbe00b2
:103b30008c1f78005100070005003d00560007006b
:103b4000e00f5b00e08f5b0006003d0004003700e3
:103b50001900070003003d006000b8006011b800c4
:103b60001000070056000700ceff07000203be004a
:103b70000002be000c00e000010032000600070059
:103b80000400be000601be004f0678004f05be00cf
:103b90004f04be00000006006000b8006011b800cd
:103ba00000003700040250008582580006035900c7
:103bb00087835900000006000006eb00e00f52006a
:103bc000e08f5a00e00f5b00e08f5b000000060012
:103bd0000180400090b79f000001eb008fb097007c
:103be0000100e000000006000200700090b79f0096
:103bf0000180400080b79f000001eb00ffa8970004
:103c00000100e000000006000200700080b79f0085
:103c1000018040006faa9700cf20de0001007000f5
:103c2000f0af9f0004024200250007004f18de009d
:103c30000002720000000600e4af9f000804440088
:103c400089844c000a054d008b854d00000006005c
:103c50003fb29700cfb297005fb39700efb39700e2
:103c600000fe2f00000006003fb09700cfb0970085
:103c70005fb19700efb19700000006000205be009b
:103c80000004be00e00f5000e08f5800e00f590024
:103c9000e08f5900000006006000b8006011b80015
:103ca00008045000898458000a0559008b85590082
:103cb0001c002000e00f5200e08f5a0000000600b8
:103cc0000800be000a01be0000000600889fbe007a
:103cd0008a9fbe008c1f78000205be000004be0053
:103ce0000006eb00e00f5000e08f5800e00f590095
:103cf000e08f590007003d006000b8006011b80077
:103d000008045000898458000a0559008b85590021
:103d10001c002000e00f5200e08f5a00e00f5b0013
:103d2000e08f5b0002003d000f0007000c00a200c6
:103d30000800be000a01be00920007000203be0098
:103d40000002be000c00e000010032000600070087
:103d50000400be000601be004f0678004f05be00fd
:103d60004f04be00000006006000b8006011b800fb
:103d700004025000858258000603590087835900c9
:103d80000000060098fd07000400be0000000600c9
:103d9000839f68000100e00002003d006000100009
:103da000e08018000300e00002003d006001110007
:103db000e08119008cfd07004f00e00002003b008d
:103dc00060001000e0801800000006000004be0043
:103dd000570007000003be000405be000200be003d
:103de00053000700844f7500000006000200be006b
:103df0006450e100050036006420e1000200360056
:103e00000968a30001003a000800be000160a0009c
:103e10004f0678004f05be004f04be0000000600ac
:103e2000f0ff2f00f1ff2700f9ff3700810020008d
:103e3000618055000b003d000b00200061fe2f004b
:103e40000100e1001d003400828171006101640005
:103e50008904d1000884d3000000e800faff3a008a
:103e60007100200061006400030070000200600027
:103e70000900320061044400e0844c000988a50078
:103e8000050032008b05e8006808e10002003a00f6
:103e90008904d1000884d300f20f20000258e10009
:103ea00005003d00c75ddd00f907b200898075009f
:103eb00008007800000006000bf827008b0078004f
:103ec00000000500889fbe008a9fbe00841f780006
:103ed000beff07004f00780011003300f0ff2f00f5
:103ee000838f6c0006003b00040565000a00a700f4
:103ef0000800370009f0a600100020000800370075
:103f0000820f5400838f5c000300390010002000f2
:103f100001003e000000200009f0a7000000ea00b8
:103f20004f05be004f04be000000e0000000060088
:103f3000c70ade00f107b200f50fb2000800320038
:103f4000e1cf4200020032000170a0002400050011
:103f5000810f7000010032000408050044000500d4
:103f6000810f700002003a00140005008502e9008c
:103f70000000400081c04800fcff3b000170a00031
:103f800024000500889fbe008a9fbe008c9fbe0053
:103f90000404b8000506b8008904460060854e0098
:103fa0000606b8000a054600e0854e000706b80080
:103fb0008b054600040eb800890446000a854e00b1
:103fc000e0854d00050eb8000a0546008b854e00c1
:103fd000060eb8008b0546000416b8000a05460018
:103fe0008b854e000516b8008b054600041eb800f0
:103ff0008b0546000800be000a01be004f06be0049
:0c4000004f05be004f04be00000006008b
:020000040000fa
:020000040005f5
:0457f800eefa0000c5
:020000040000fa
:020000040005f5
:0457fc007f3e0000ec
:020000040000fa
:100008002c380100403801005438010068380100dc
:100018007c3801002c3801002c3801002c380100f4
:100028002c3801002c3801002c38010072340100f2
:100038002c3801002c3801002c3801002c38010024
:100048002c3801002c3801002c380100fa37010047
:100058002c380100505000002c3801002c380100c9
:100068002c3801002c3801002c3801002c380100f4
:10007800923d01002c3801002c3801002c38010079
:100088002c3801002c3801002c3801002c380100d4
:100098002e330100903801001a3801002c38010075
:1000a8002c3801002c3801002c3801002c380100b4
:1000b8002c3801002c3801002c3801002c380100a4
:1000c8002c3801002c3801002c3801002c38010094
:1000d8002c3801002c3801002c3801002c38010084
:1000e8002c3801002c3801002c3801002c38010074
:1000f8002c380100b8380100e03801002c38010024
:100108002c3801002c3801002c3801002c38010053
:100118002c3801002c3801002c3801002c38010043
:100128002c3801002c3801002c3801002c38010033
:100138002c3801002c3801002c3801002c38010023
:100148002c3801002c3801002c3801002c38010013
:100158002c3801002c3801002c3801002c38010003
:100168002c3801002c380100203801002c380100ff
:100178002c3801002c3801002c3801002c380100e3
:10018800263801002c3801002c3801002c380100d9
:100198002c3801002c3801002c3801002c380100c3
:1001a8002c3801002c3801002c3801002c380100b3
:1001b8002c3801002c3801002c3801002c380100a3
:1001c8002c3801002c3801002c3801002c38010093
:1001d8002c3801002c3801002c3801002c38010083
:1001e8002c3801002c3801002c3801002c38010073
:0801f8002c3801002c38010035
:020000040000fa
:100208002c380100403801005438010068380100da
:100218007c3801002c3801002c3801002c380100f2
:100228002c3801002c3801002c38010072340100f0
:100238002c3801002c3801002c3801002c38010022
:100248002c3801002c3801002c380100fa37010045
:100258002c380100505000002c3801002c380100c7
:100268002c3801002c3801002c3801002c380100f2
:10027800923d01002c3801002c3801002c38010077
:100288002c3801002c3801002c3801002c380100d2
:100298002e330100903801001a3801002c38010073
:1002a8002c3801002c3801002c3801002c380100b2
:1002b8002c3801002c3801002c3801002c380100a2
:1002c8002c3801002c3801002c3801002c38010092
:1002d8002c3801002c3801002c3801002c38010082
:1002e8002c3801002c3801002c3801002c38010072
:1002f8002c380100b8380100e03801002c38010022
:100308002c3801002c3801002c3801002c38010051
:100318002c3801002c3801002c3801002c38010041
:100328002c3801002c3801002c3801002c38010031
:100338002c3801002c3801002c3801002c38010021
:100348002c3801002c3801002c3801002c38010011
:100358002c3801002c3801002c3801002c38010001
:100368002c3801002c380100203801002c380100fd
:100378002c3801002c3801002c3801002c380100e1
:10038800263801002c3801002c3801002c380100d7
:100398002c3801002c3801002c3801002c380100c1
:1003a8002c3801002c3801002c3801002c380100b1
:1003b8002c3801002c3801002c3801002c380100a1
:1003c8002c3801002c3801002c3801002c38010091
:1003d8002c3801002c3801002c3801002c38010081
:1003e8002c3801002c3801002c3801002c38010071
:0803f8002c3801002c38010033
:020000040000fa
:10400c002144000045460000000d00000a0000009d
:10401c007478000074000000687400006d000000eb
:10402c00687400006d6c000000630000676900009c
:10403c00007800006d6c00000063000073730000da
:10404c000067000069660000007000006e670000e9
:10405c00006a000070670000006300006c610000e3
:10406c0000770000617600000000000000000000f6
:10407c00000000000ea0000012a0000016a000001e
:10408c001ba000001fa0000023a0000027a0000020
:10409c002ba000002fa0000033a0000037a00000d0
:1040ac003ba0000074650000787400002f700000c5
:1040bc006c610000696e00000074000065780000ff
:1040cc00742f0000687400006d6c00000074000018
:1040dc0065780000742f0000786d00006c00000003
:1040ec0074650000787400002f6300007373000087
:1040fc00006900006d610000676500002f6700001b
:10410c0069660000006900006d61000067650000d1
:10411c002f7000006e670000006900006d610000e8
:10412c00676500002f6a00007065000067000000e2
:10413c0061700000706c0000696300006174000025
:10414c00696f00006e2f00006a610000766100004c
:10415c002d7600006d0000006175000064690000a0
:10416c006f2f0000782d000077610000766500004d
:10417c000000000058a0000063a0000063a0000035
:10418c0063a000006da0000076a000007fa00000de
:10419c0089a0000093a000009ea00000b2a0000027
:1041ac00bfa0000048540000545000002f31000004
:1041bc002e3100002032000030300000204f000073
:1041cc004b0d00000a4300006f6e00006e6500008e
:1041dc0063740000696f00006e3a000020630000f9
:1041ec006c6f0000736500000d0a000000480000b1
:1041fc0054540000502f0000312e000031200000dc
:10420c0034300000302000004261000064200000c7
:10421c00526500007175000065730000740d00009c
:10422c000a4300006f6e00006e65000063740000ae
:10423c00696f00006e3a0000206300006c6f000094
:10424c00736500000d0a00000d0a000034300000f8
:10425c003020000042610000642000005265000024
:10426c007175000065730000743a00002063000053
:10427c00616e00002774000020680000616e000071
:10428c00646c000065200000436f00006e74000039
:10429c00656e0000742d00004c6500006e67000018
:1042ac00746800000d0a000000480000545400001f
:1042bc00502f0000312e000031200000343000005f
:1042cc0031200000556e000061750000746800001c
:1042dc006f720000697a0000656400000d0a00002e
:1042ec0057570000572d00004175000074680000fe
:1042fc00656e000074690000636100007465000065
:10430c003a20000042610000736900006320000045
:10431c0072650000616c00006d3d000022500000d1
:10432c00726f000074650000637400006564000027
:10433c00220d00000a4300006f6e00006e65000045
:10434c0063740000696f00006e3a00002063000087
:10435c006c6f0000736500000d0a00000d0a000070
:10436c003430000031200000556e000061750000f3
:10437c00746800006f720000697a000065640000c8
:10438c003a2000005061000073730000776f00004a
:10439c0072640000207200006571000075690000f5
:1043ac0072650000640d00000a0000004854000013
:1043bc00545000002f3100002e310000203400003a
:1043cc0030340000204e00006f74000020660000a6
:1043dc006f7500006e6400000d0a0000436f000052
:1043ec006e6e000065630000746900006f6e000063
:1043fc003a200000636c00006f730000650d000034
:10440c000a0d00000a340000303400003a2000008d
:10441c00466900006c650000206e00006f7400009f
:10442c00206600006f7500006e6400000d0a00002d
:10443c000048000054540000502f0000312e0000a2
:10444c00312000003431000034200000526500009f
:10445c007175000065730000742d0000555200004a
:10446c0049200000546f00006f2000004c6f0000ca
:10447c006e6700000d0a0000436f00006e6e0000b6
:10448c0065630000746900006f6e00003a20000044
:10449c00636c00006f730000650d00000a0d0000d6
:1044ac000a34000031340000205200006571000015
:1044bc0075650000737400002d5500005249000012
:1044cc00205400006f6f0000204c00006f6e000045
:1044dc00673a000020420000756600006665000027
:1044ec00722000006f76000065720000666c0000a0
:1044fc006f770000206400006574000065630000a5
:10450c0074650000640d00000a00000048540000af
:10451c00545000002f3100002e31000020350000d7
:10452c0030300000204900006e74000065720000fd
:10453c006e6100006c200000536500007276000074
:10454c006572000020450000727200006f7200005e
:10455c000d0a0000436f00006e6e000065630000e2
:10456c00746900006f6e00003a200000636c00005c
:10457c006f730000650d00000a0d00000a35000085
:10458c0030300000204900006e740000657200009d
:10459c006e6100006c200000536500007276000014
:1045ac006572000020450000727200006f720000fe
:1045bc003a2000004578000070650000637400002c
:1045cc00656400002064000061740000612000003c
:1045dc006e6f0000742000007072000065730000a4
:1045ec00656e0000740d00000a00000048540000c5
:1045fc00545000002f3100002e31000020350000f7
:10460c0030310000204e00006f7400002049000083
:10461c006d7000006c6500006d6500006e7400002c
:10462c00656400000d0a0000436f00006e6e000010
:10463c0065630000746900006f6e00003a20000092
:10464c00636c00006f730000650d00000a0d000024
:10465c000a35000030310000204e00006f7400005d
:10466c00204900006d7000006c6500006d65000055
:10467c006e740000656400003a2000004f6e00006c
:10468c006c790000204700004554000020610000b8
:10469c006e640000205000004f53000054200000b6
:1046ac0073750000707000006f720000746500007c
:1046bc00640d00000a000000485400005450000033
:1046cc002f3100002e31000020330000303200006a
:1046dc00204600006f7500006e6400000d0a00009b
:1046ec00436f00006e6e000065630000746900008b
:1046fc006f6e00003a200000636c00006f730000c6
:10470c00650d00000a4c00006f630000617400002e
:10471c00696f00006e3a0000200000004854000051
:10472c00545000002f3100002e31000020340000c6
:10473c0030330000204600006f72000062690000f8
:10474c0064640000656e00000d0a0000436f0000f9
:10475c006e6e000065630000746900006f6e0000ef
:10476c003a200000636c00006f730000650d0000c0
:10477c000a0d00000a34000030330000204600000f
:10478c006f7200006269000064640000656e0000d6
:10479c003a200000535300004c20000052650000ea
:1047ac00717500006972000065640000202d000026
:1047bc002075000073650000204800005454000070
:1047cc00505300000d0a000000000000d8a00000ab
:1047dc00d8a00000fda000005ba10000dca100003f
:1047ec001fa200008ca20000fca2000062a300002b
:1047fc0094a30000436f00006f6b0000696500001c
:10480c003a00000041750000746800006f720000ef
:10481c00697a000061740000696f00006e3a000054
:10482c00004300006f6e0000746500006e740000a1
:10483c002d4c0000656e000067740000683a0000a3
:10484c000000000000a4000008a4000017a4000051
:10485c004745000054000000696e000064650000cc
:10486c00782e0000687400006d0000000d0a000036
:10487c000d0a0000333000003420000052650000a7
:10488c006469000072650000637400003a20000047
:10489c00004300006f6e0000746500006e74000031
:1048ac002d54000079700000653a000020000000d3
:1048bc00436f00006e740000656e0000742d0000e4
:1048cc00456e0000636f0000646900006e670000b5
:1048dc003a200000677a0000697000000d0a0000a1
:1048ec000043000061630000686500002d43000078
:1048fc006f6e0000747200006f6c00003a200000b4
:10490c00006e00006f2d0000636100006368000002
:10491c00650000006d610000782d000061670000eb
:10492c00653d000000360000303000000000000043
:10493c0053650000742000005353000049440000ec
:10494c000d0a00000053000065740000204e0000aa
:10495c0065740000776f0000726b0000205400003b
:10496c0079700000650d00000a000000536500001e
:10497c007420000053630000616e0000205400009e
:10498c0079700000650d00000a00000053650000fe
:10499c007420000043680000616e00006e6500002a
:1049ac006c2000004c690000737400000d0a0000bc
:1049bc000053000065740000206c00006973000057
:1049cc0074200000726500007472000079200000f1
:1049dc00636f0000756e0000740d00000a0000008b
:1049ec00536500007420000045760000656e0000e1
:1049fc00742000004e6f000074690000667900009e
:104a0c000d0a0000004400006973000061620000a0
:104a1c006c65000020500000532d0000506f00000a
:104a2c006c6c00000d0a0000004500006e61000077
:104a3c00626c000065200000505300002d500000f7
:104a4c006f6c00006c0d00000a0000005365000044
:104a5c007420000042650000616300006f6e00006e
:104a6c0020540000696d0000656f00007574000033
:104a7c000d0a000000530000657400002073000054
:104a8c00656300007572000069740000793a0000db
:104a9c00200000006f700000656e00000d0a000021
:104aac000057000045500000343000000d0a000093
:104abc00005700004550000031300000340d00005c
:104acc000a000000575000004120000077690000e8
:104adc0074680000206b0000657900000d0a00006e
:104aec00005700005041000020770000697400005e
:104afc006820000070610000737300002d700000ce
:104b0c0068720000617300006520000028570000e7
:104b1c00415200004e4900004e4700003a20000070
:104b2c007468000065200000666c0000797000005d
:104b3c006f72000074200000776900006c6c00003c
:104b4c0020730000706500006e640000206100009e
:104b5c00626f0000757400002033000030200000ec
:104b6c0073650000636f00006e640000732000002a
:104b7c00746f000020630000616c0000637500001e
:104b8c006c61000074650000207400006865000012
:104b9c00206b000065790000290d00000a00000060
:104bac00575000004132000020770000697400006b
:104bbc00682000006b650000790d00000a00000001
:104bcc00575000004132000020770000697400004b
:104bdc006820000070610000737300002d700000ed
:104bec006872000061730000652000002857000007
:104bfc00415200004e4900004e4700003a20000090
:104c0c007468000065200000666c0000797000007c
:104c1c006f72000074200000776900006c6c00005b
:104c2c0020730000706500006e64000020610000bd
:104c3c00626f00007574000020330000302000000b
:104c4c0073650000636f00006e6400007320000049
:104c5c00746f000020630000616c0000637500003d
:104c6c006c61000074650000207400006865000031
:104c7c00206b000065790000290d00000a0000007f
:104c8c00575000004120000041550000544f0000d7
:104c9c002077000069740000682000006b6500003c
:104cac00790d00000a000000575000004120000060
:104cbc0041550000544f000020770000697400003b
:104ccc006820000070610000737300002d700000fc
:104cdc006872000061730000652000002857000016
:104cec00415200004e4900004e4700003a2000009f
:104cfc007468000065200000666c0000797000008c
:104d0c006f72000074200000776900006c6c00006a
:104d1c0020730000706500006e64000020610000cc
:104d2c00626f00007574000020330000302000001a
:104d3c0073650000636f00006e6400007320000058
:104d4c00746f000020630000616c0000637500004c
:104d5c006c61000074650000207400006865000040
:104d6c00206b000065790000290d00000a0000008e
:104d7c005374000061720000742000005769000039
:104d8c0046690000204300006f6e00006e65000055
:104d9c00637400000d0a0000003200004021000086
:104dac003f5e00005e5e0000715900003a31000069
:104dbc0040000000070c000011160000070c00005a
:104dcc0011160000070c000011160000070c000063
:104ddc0011160000050900000e1400000509000062
:104dec000e140000050900000e1400000509000057
:104dfc000e140000040b000010170000040b000040
:104e0c0010170000040b000010170000040b00002a
:104e1c0010170000060a00000f150000060a00001b
:104e2c000f150000060a00000f150000060a00000e
:104e3c000f15000078a400006ad7000056b70000d8
:104e4c00c7e80000db70000020240000eece00005c
:104e5c00bdc10000af0f00007cf500002ac60000a9
:104e6c00874700001346000030a8000001950000a1
:104e7c0046fd0000d898000080690000aff70000e4
:104e8c00448b0000b15b0000ffff0000bed70000a8
:104e9c005c89000022110000906b000093710000ef
:104eac0098fd00008e43000079a600002108000048
:104ebc00b4490000622500001ef6000040b300005b
:104ecc0040c00000515a00005e260000aac7000036
:104edc00b6e900005d1000002fd60000531400004e
:104eec004402000081e60000a1d80000c8fb0000cd
:104efc00d3e70000e6cd0000e1210000d60700005a
:104f0c0037c30000870d0000d5f40000ed1400003d
:104f1c005a45000005e90000e3a90000f8a30000d1
:104f2c00effc0000d90200006f6700008a4c000003
:104f3c002a8d000042390000faff000081f60000c3
:104f4c0071870000226100009d6d00000c3800008c
:104f5c00e5fd000044ea0000bea40000a9cf00005b
:104f6c00de4b0000604b0000bbf6000070bc000084
:104f7c00bfbe0000c67e00009b280000fa27000080
:104f8c00a1ea000085300000efd40000051d0000f0
:104f9c008804000039d00000d4d90000e599000045
:104fac00dbe60000f87c0000a21f00006556000044
:104fbc00acc400004422000029f4000097ff00005c
:104fcc002a430000a723000094ab000039a0000086
:104fdc0093fc0000c35900005b65000092cc0000fc
:104fec000c8f00007df40000efff0000d15d00008d
:104ffc00848500004f7e0000a86f0000e0e60000f2
:10500c002cfe00001443000001a30000a1110000bd
:10501c00084e0000827e000053f7000035f20000bd
:10502c003abd0000bbd20000d72a000091d300008b
:10503c0086eb000031390000322e000031360000c2
:10504c00382e0000312e00003131000035000000f8
:10505c0031390000322e000031360000382e0000ad
:10506c00312e00003100000032350000352e0000da
:10507c0032350000352e000032350000352e000090
:10508c003000000000440000495300004142000081
:10509c004c45000044000000466c00007970000094
:1050ac006f72000074000000494e00004652000070
:1050bc004153000054520000554300005455000069
:1050cc0052450000004600006c790000706f000033
:1050dc007274000020690000732000006e6f0000e5
:1050ec0077200000636f00006e6e000065630000a7
:1050fc00746500006420000077690000746800008b
:10510c002063000075730000746f00006d200000b8
:10511c007365000074740000696e00006773000012
:10512c002e0d00000a000000495000002061000014
:10513c006472000065730000733a000020000000e8
:10514c002e0d00000a000000323000003530000047
:10515c00004f000075760000657200007475000049
:10516c007265000020640000652000006c61000086
:10517c00206300006f6e00006e650000786900000f
:10518c006f6e00002073000075720000206c000030
:10519c0065200000706f0000727400002032000067
:1051ac0030350000302e00000d0a000000250000f4
:1051bc006325000069000000496e00007661000064
:1051cc006c690000642000007265000071750000bd
:1051dc0065730000742e00000d0a000000490000e9
:1051ec006e760000616c00006964000020720000a3
:1051fc0065710000756500007374000020280000c4
:10520c00777200006f6e0000672000006e75000062
:10521c006d62000065720000206f000066200000c7
:10522c0061720000677500006d6500006e7400000f
:10523c00732900002e0d00000a00000045760000c6
:10524c00656e0000743a0000204300006f6e000091
:10525c006e65000063740000696f00006e20000032
:10526c0053750000636300006573000073660000f3
:10527c00756c00000d0a000000450000766500000a
:10528c006e7400003a200000436f00006e6e000048
:10529c0065630000746900006f6e0000204600001a
:1052ac00616900006c65000064200000202d000086
:1052bc002d20000065760000656e0000744900002a
:1052cc006e6600006f2000003d20000000250000ed
:1052dc00640d00000a00000045760000656e0000b9
:1052ec00743a0000204300006f6e00006e650000f1
:1052fc0063740000696f00006e20000054650000ac
:10530c006d7000006f72000061720000696c00002b
:10531c00792000004c6f000073740000202d0000f9
:10532c002d20000065760000656e000074490000b9
:10533c006e6600006f2000003d200000004500005c
:10534c00766500006e7400003a200000436f000088
:10535c006e6e000065630000746900006f6e0000e3
:10536c00205200006565000073740000616200004b
:10537c006c69000073680000656400000d0a000091
:10538c0000450000766500006e7400003a200000b5
:10539c00436f00006e6e00006563000074690000ce
:1053ac006f6e000020500000657200006d610000ff
:1053bc006e6500006e7400006c790000204c0000db
:1053cc006f730000742000002d2d0000206500007c
:1053dc00766500006e740000496e0000666f000078
:1053ec00203d00002000000045760000656e0000a6
:1053fc00743a000020530000636100006e2000002e
:10540c0052650000737500006c740000732000007e
:10541c005265000061640000792c0000002500003a
:10542c006400000072650000737500006c7400006d
:10543c00730d00000a000000484500004c4f0000ae
:10544c00204d000043480000504200004f41000036
:10545c00524400000d0a000000450000484c0000ba
:10546c004f2000004d43000048500000424f000008
:10547c0041520000440d00000a000000415500009c
:10548c0054480000204c00004f470000494e0000db
:10549c000d0a0000000d00000a0000004d41000044
:1054ac00494c000020460000524f00004d3a0000cd
:1054bc003c0000003e0d00000a00000052430000ba
:1054cc0050540000205400004f3a00003c000000f3
:1054dc0044410000544100000d0a00000046000049
:1054ec00726f00006d3a0000200000000d0a0000f1
:1054fc00546f00003a200000000d00000a43000029
:10550c00433a0000200000000d0a00005375000013
:10551c00626a000065630000743a0000200000001d
:10552c000d0a00002e0d00000a0000000d0a0000fc
:10553c002e00000051550000495400000d0a0000d7
:10554c0000000000466c0000797000006f720000d3
:10555c007420000073740000617200007469000014
:10556c006e6700002e2e00002e0000005443000039
:10557c0050000000556e000065780000706500005a
:10558c006374000065640000206500006e64000018
:10559c00206f000066200000707200006f67000032
:1055ac00726100006d2e00002e2e00000d0a00000e
:1055bc00004900006e69000074690000616c000015
:1055cc00697a0000696e00006720000055440000f5
:1055dc00502e00002e2e00000d0a00000046000088
:1055ec004c590000000d00000a4e000065770000c9
:1055fc00204900005020000041640000647200004b
:10560c0065730000733a0000200000000d0a0000d2
:10561c0000000000574600002041000053530000da
:10562c0045520000544900004f4e00003a20000043
:10563c004d6f0000647500006c650000204e00008a
:10564c00756d000062650000722000003d200000b6
:10565c000025000064200000200000004c690000c0
:10566c006e650000204e0000756d00006265000044
:10567c00722000003d2000000025000064000000a6
:10568c00000000002c010000c80000000100000018
:10569c00c80000002c010000030000003c000000ca
:1056ac001e0000000400000032000000c8000000d2
:1056bc0008000000e8030000e803000008000000f8
:1056cc00e8030000e803000009000000e803000004
:1056dc00e803000011110000222200003333000007
:1056ec0044440000555500006666000077770000c2
:1056fc008888000099990000aaaa0000bbbb000092
:10570c00cccc0000dddd0000eeee0000cecd0000c4
:10571c00acab00002e00000000040000a300000051
:10572c0000000000504900004355000053320000b7
:10573c00444f000054320000004900004e5000005d
:10574c00472d0000496e0000746500007255000082
:10575c00000000000d0a0000444800004350000007
:10576c002f5000006f77000065720000206500006c
:10577c00766500006e740000206f0000636300000b
:10578c007572000072650000640000004f6e00002e
:10579c00004f000066660000006900006e660000a5
:1057ac007261000000610000646800006f6300001b
:1057bc000054000043500000000000007072000014
:1057cc006f740000656300007400000061640000e9
:1057dc006d6900006e000000666c000079700000be
:1057ec006f720000740000002c28000029000000db
:1057fc002e000000256c00006900000070610000a4
:10580c00737600000d0a0000000000002564000003
:10581c002e250000642e0000256400002e250000bb
:10582c006425000063000000544900004d4900004d
:10583c004e470000204f000055540000210d000081
:10584c000a00000031320000372e0000302e00001c
:10585c00302e0000310000004d5000004653000077
:10586c000201000000000000494400004c4500000b
:10587c000000000000040000a30000000000000075
:10588c004840000001000000010100000100000080
:04589c000600000002
:020000040000fa
:1058a0000200fa00004f780060a422001040780047
:1058b0009e4f50001d00320060a42200104078006e
:1058c000e24f40000b00320060a42200104078003c
:1058d0000080fb007e00b90080007800a03b220021
:1058e00000804000014f22000e00090031187800ae
:1058f000e001b10060a422001e487800e0cfb300b0
:105900009e4f1000090032001e80fb007e00b9008f
:1059100080007800a03b220000804000014f220060
:105920000e000900b0187800e001b1000080fa0014
:10593000000006000000fa0070a4220090407800e9
:1059400060a422001040780080cf5000290032006f
:1059500070a4220010407800e24f4000180032008e
:10596000c04822000001780070a422001040780096
:105970000080fb007e00b900fc004000a03b22003c
:10598000008040009042780070a42200104078000f
:105990000080fb007e00b90080007800a03b220060
:1059a000008040009000780080fd2f0000804000c3
:1059b0008402200013c0b300854078004d11070019
:1059c00060a422009040780070a422000148780072
:1059d000c0502200904178008127810080fd2f0077
:1059e00000814000c04822008402200011c0b300a2
:1059f000401107000080fa00000006000c00fa00c9
:105a0000a0852100000f7800405281000000e000d6
:105a100008003a007a980200000000008000780038
:105a2000f07f200080806000004020000080400067
:105a300040528900a03b220070288900404b220080
:105a4000c20320008000eb0072030200000000008f
:105a50000040eb00204f98000040eb00304f9800d2
:105a60004e0037003e4890008dff07003e489000f2
:105a70000080fb006600b9008000780060b42a0056
:105a80000080400090409000214798003e489000e0
